{
  "contractName": "DelegatedWalletFactory",
  "abi": [
    {
      "constant": true,
      "inputs": [],
      "name": "blockCreated",
      "outputs": [
        {
          "name": "",
          "type": "uint256"
        }
      ],
      "payable": false,
      "stateMutability": "view",
      "type": "function",
      "signature": "0x4e989a4c"
    },
    {
      "constant": true,
      "inputs": [],
      "name": "blueprint",
      "outputs": [
        {
          "name": "",
          "type": "address"
        }
      ],
      "payable": false,
      "stateMutability": "view",
      "type": "function",
      "signature": "0xc05efa15"
    },
    {
      "inputs": [
        {
          "name": "_blueprint",
          "type": "address"
        }
      ],
      "payable": false,
      "stateMutability": "nonpayable",
      "type": "constructor",
      "signature": "constructor"
    },
    {
      "anonymous": false,
      "inputs": [
        {
          "indexed": true,
          "name": "caller",
          "type": "address"
        },
        {
          "indexed": true,
          "name": "owner",
          "type": "address"
        },
        {
          "indexed": false,
          "name": "wallet",
          "type": "address"
        }
      ],
      "name": "CreateWallet_event",
      "type": "event",
      "signature": "0xe78b8ef631cdb1c7eab040bf8895a32210784ff81663b7473dfcfa4f8bdadda9"
    },
    {
      "anonymous": false,
      "inputs": [
        {
          "indexed": true,
          "name": "target",
          "type": "address"
        },
        {
          "indexed": false,
          "name": "clone",
          "type": "address"
        }
      ],
      "name": "CloneCreated",
      "type": "event",
      "signature": "0x3d2b821286d97aa9d35330d87a82f7b548b9737b10e2d1ba59994edfd50e9d2b"
    },
    {
      "constant": false,
      "inputs": [
        {
          "name": "owner",
          "type": "address"
        },
        {
          "name": "delegates",
          "type": "address[]"
        }
      ],
      "name": "createWallet",
      "outputs": [
        {
          "name": "wallet",
          "type": "address"
        }
      ],
      "payable": false,
      "stateMutability": "nonpayable",
      "type": "function",
      "signature": "0x1a244e7c"
    }
  ],
  "bytecode": "0x608060405234801561001057600080fd5b5060405160208061074b8339810180604052602081101561003057600080fd5b81019080805190602001909291905050504360008190555080600160006101000a81548173ffffffffffffffffffffffffffffffffffffffff021916908373ffffffffffffffffffffffffffffffffffffffff160217905550506106b2806100996000396000f3fe608060405260043610610057576000357c0100000000000000000000000000000000000000000000000000000000900463ffffffff1680631a244e7c1461005c5780634e989a4c14610181578063c05efa15146101ac575b600080fd5b34801561006857600080fd5b5061013f6004803603604081101561007f57600080fd5b81019080803573ffffffffffffffffffffffffffffffffffffffff169060200190929190803590602001906401000000008111156100bc57600080fd5b8201836020820111156100ce57600080fd5b803590602001918460208302840111640100000000831117156100f057600080fd5b919080806020026020016040519081016040528093929190818152602001838360200280828437600081840152601f19601f820116905080830192505050505050509192919290505050610203565b604051808273ffffffffffffffffffffffffffffffffffffffff1673ffffffffffffffffffffffffffffffffffffffff16815260200191505060405180910390f35b34801561018d57600080fd5b5061019661053f565b6040518082815260200191505060405180910390f35b3480156101b857600080fd5b506101c1610545565b604051808273ffffffffffffffffffffffffffffffffffffffff1673ffffffffffffffffffffffffffffffffffffffff16815260200191505060405180910390f35b600080610231600160009054906101000a900473ffffffffffffffffffffffffffffffffffffffff1661056b565b90508091508173ffffffffffffffffffffffffffffffffffffffff1663c4d66de8306040518263ffffffff167c0100000000000000000000000000000000000000000000000000000000028152600401808273ffffffffffffffffffffffffffffffffffffffff1673ffffffffffffffffffffffffffffffffffffffff168152602001915050600060405180830381600087803b1580156102d157600080fd5b505af11580156102e5573d6000803e3d6000fd5b5050505060008090505b83518110156103f3578273ffffffffffffffffffffffffffffffffffffffff1663e71bdf41858381518110151561032257fe5b906020019060200201516040518263ffffffff167c0100000000000000000000000000000000000000000000000000000000028152600401808273ffffffffffffffffffffffffffffffffffffffff1673ffffffffffffffffffffffffffffffffffffffff168152602001915050602060405180830381600087803b1580156103aa57600080fd5b505af11580156103be573d6000803e3d6000fd5b505050506040513d60208110156103d457600080fd5b81019080805190602001909291905050505080806001019150506102ef565b508173ffffffffffffffffffffffffffffffffffffffff1663f2fde38b856040518263ffffffff167c0100000000000000000000000000000000000000000000000000000000028152600401808273ffffffffffffffffffffffffffffffffffffffff1673ffffffffffffffffffffffffffffffffffffffff168152602001915050600060405180830381600087803b15801561048f57600080fd5b505af11580156104a3573d6000803e3d6000fd5b505050508373ffffffffffffffffffffffffffffffffffffffff163373ffffffffffffffffffffffffffffffffffffffff167fe78b8ef631cdb1c7eab040bf8895a32210784ff81663b7473dfcfa4f8bdadda984604051808273ffffffffffffffffffffffffffffffffffffffff1673ffffffffffffffffffffffffffffffffffffffff16815260200191505060405180910390a35092915050565b60005481565b600160009054906101000a900473ffffffffffffffffffffffffffffffffffffffff1681565b600060608060405190810160405280603f81526020017f600034603b57603080600f833981f36000368180378080368173bebebebebebe81526020017fbebebebebebebebebebebebebebe5af43d82803e15602c573d90f35b3d90fd0081525090506000836c0100000000000000000000000002905060008090505b601481101561066f5781816014811015156105fe57fe5b1a7f0100000000000000000000000000000000000000000000000000000000000000028382601a0181518110151561063257fe5b9060200101907effffffffffffffffffffffffffffffffffffffffffffffffffffffffffffff1916908160001a90535080806001019150506105e7565b5081516020830181816000f094505050505091905056fea165627a7a7230582010aecdc96d88bd0364e10406f242955ab026084a6588cd76e9ee91d453035b090029",
  "source": "pragma solidity ^0.5.0;\r\n\r\nimport \"./external/CloneFactory.sol\";\r\nimport \"./DelegatedWallet.sol\";\r\n\r\n/// @title DelegatedWalletFactory Contract\r\n/// @author Joseph Reed\r\n/// @dev The DelegatedWalletFactory makes it easy to deploy delegated wallet. It provides several\r\n///      helper functions to deploy a wallet in several ways\r\ncontract DelegatedWalletFactory is CloneFactory {\r\n    \r\n    uint public blockCreated;           // The block the factory was deployed\r\n    address public blueprint;   // The delegated wallet blueprint to supply the clone factory\r\n\r\n    /// @notice Constructor to create a DelegatedWalletFactory\r\n    /// @param _blueprint The delegated wallet blueprint \r\n    constructor (address _blueprint) public {\r\n        blockCreated = block.number;    // The block number at the time of deployment\r\n        blueprint = _blueprint;         // The blueprint for every delegated wallet\r\n    }\r\n\r\n    /// @notice Creates a delegated wallet with the owner set to 'owner' and predefined 'delegates'\r\n    /// @param owner The owner of the delegated wallet\r\n    /// @param delegates The owner of the delegated wallet\r\n    /// @return The delegated wallet address\r\n    function createWallet (address owner, address[] memory delegates) public returns (DelegatedWallet wallet) {\r\n        // see https://solidity.readthedocs.io/en/v0.5.0/050-breaking-changes.html?highlight=address_make_payable for converting to payable addresses\r\n        address payable clone = address(uint160(createClone(blueprint)));\r\n        wallet = DelegatedWallet(clone);\r\n        wallet.initialize(address(this));\r\n\r\n        for(uint i = 0; i < delegates.length; i++)\r\n            wallet.addDelegate(delegates[i]);\r\n        \r\n        wallet.transferOwnership(owner);\r\n\r\n        emit CreateWallet_event(msg.sender, owner, address(wallet));\r\n    }\r\n    \r\n    event CreateWallet_event (address indexed caller, address indexed owner, address wallet);\r\n    \r\n}\r\n",
  "sourcePath": "C:\\Users\\My\\Documents\\GitHub\\everchain-project\\delegated-wallet\\contracts\\DelegatedWalletFactory.sol",
  "compiler": {
    "name": "solc",
    "version": "0.5.0+commit.1d4f565a.Emscripten.clang"
  },
  "schemaVersion": "3.0.0-beta.2",
  "updatedAt": "2018-11-27T23:34:16.915Z",
  "devdoc": {
    "methods": {
      "constructor": {
        "params": {
          "_blueprint": "The delegated wallet blueprint "
        }
      },
      "createWallet(address,address[])": {
        "return": "The delegated wallet address"
      }
    }
  },
  "userdoc": {
    "methods": {},
    "notice": "helper functions to deploy a wallet in several ways"
  }
}