{
  "contractName": "DelegatedWalletManager",
  "abi": [
    {
      "constant": true,
      "inputs": [],
      "name": "blockCreated",
      "outputs": [
        {
          "name": "",
          "type": "uint256"
        }
      ],
      "payable": false,
      "stateMutability": "view",
      "type": "function",
      "signature": "0x4e989a4c"
    },
    {
      "inputs": [],
      "payable": false,
      "stateMutability": "nonpayable",
      "type": "constructor",
      "signature": "constructor"
    },
    {
      "anonymous": false,
      "inputs": [
        {
          "indexed": true,
          "name": "owner",
          "type": "address"
        },
        {
          "indexed": false,
          "name": "wallet",
          "type": "address"
        }
      ],
      "name": "AddWallet_event",
      "type": "event",
      "signature": "0xf9fe8c8f6812279aad6b2f8051214c6a19512a6af9fe0a1a821c0e96b11c1995"
    },
    {
      "anonymous": false,
      "inputs": [
        {
          "indexed": true,
          "name": "factory",
          "type": "address"
        },
        {
          "indexed": true,
          "name": "owner",
          "type": "address"
        },
        {
          "indexed": false,
          "name": "wallet",
          "type": "address"
        }
      ],
      "name": "CreateWallet_event",
      "type": "event",
      "signature": "0xe78b8ef631cdb1c7eab040bf8895a32210784ff81663b7473dfcfa4f8bdadda9"
    },
    {
      "anonymous": false,
      "inputs": [
        {
          "indexed": true,
          "name": "owner",
          "type": "address"
        },
        {
          "indexed": false,
          "name": "wallet",
          "type": "address"
        }
      ],
      "name": "RemoveWallet_event",
      "type": "event",
      "signature": "0xc271a19d5cf9958aaacae360c3870c2847dc24d02f03a6a2889a0fcfacf46e06"
    },
    {
      "constant": false,
      "inputs": [
        {
          "name": "factory",
          "type": "address"
        },
        {
          "name": "delegates",
          "type": "address[]"
        }
      ],
      "name": "createWallet",
      "outputs": [
        {
          "name": "wallet",
          "type": "address"
        }
      ],
      "payable": false,
      "stateMutability": "nonpayable",
      "type": "function",
      "signature": "0x1a244e7c"
    },
    {
      "constant": false,
      "inputs": [
        {
          "name": "wallet",
          "type": "address"
        }
      ],
      "name": "addWallet",
      "outputs": [
        {
          "name": "success",
          "type": "bool"
        }
      ],
      "payable": false,
      "stateMutability": "nonpayable",
      "type": "function",
      "signature": "0xefeb5f1f"
    },
    {
      "constant": false,
      "inputs": [
        {
          "name": "wallet",
          "type": "address"
        }
      ],
      "name": "removeWallet",
      "outputs": [
        {
          "name": "success",
          "type": "bool"
        }
      ],
      "payable": false,
      "stateMutability": "nonpayable",
      "type": "function",
      "signature": "0xa75fe8e1"
    },
    {
      "constant": true,
      "inputs": [
        {
          "name": "account",
          "type": "address"
        }
      ],
      "name": "getWallets",
      "outputs": [
        {
          "name": "",
          "type": "address[]"
        }
      ],
      "payable": false,
      "stateMutability": "view",
      "type": "function",
      "signature": "0x422c29a4"
    },
    {
      "constant": true,
      "inputs": [
        {
          "name": "account",
          "type": "address"
        }
      ],
      "name": "totalWallets",
      "outputs": [
        {
          "name": "",
          "type": "uint256"
        }
      ],
      "payable": false,
      "stateMutability": "view",
      "type": "function",
      "signature": "0x33dccbbc"
    },
    {
      "constant": true,
      "inputs": [
        {
          "name": "account",
          "type": "address"
        },
        {
          "name": "wallet",
          "type": "address"
        }
      ],
      "name": "contains",
      "outputs": [
        {
          "name": "",
          "type": "bool"
        }
      ],
      "payable": false,
      "stateMutability": "view",
      "type": "function",
      "signature": "0xed26cae8"
    },
    {
      "constant": true,
      "inputs": [
        {
          "name": "account",
          "type": "address"
        },
        {
          "name": "i",
          "type": "uint256"
        }
      ],
      "name": "index",
      "outputs": [
        {
          "name": "",
          "type": "address"
        }
      ],
      "payable": false,
      "stateMutability": "view",
      "type": "function",
      "signature": "0x59fc1a6e"
    },
    {
      "constant": true,
      "inputs": [
        {
          "name": "account",
          "type": "address"
        },
        {
          "name": "wallet",
          "type": "address"
        }
      ],
      "name": "indexOf",
      "outputs": [
        {
          "name": "",
          "type": "uint256"
        }
      ],
      "payable": false,
      "stateMutability": "view",
      "type": "function",
      "signature": "0xf95bd6f7"
    }
  ],
  "bytecode": "0x608060405234801561001057600080fd5b50436000819055506111a7806100276000396000f3fe608060405260043610610099576000357c0100000000000000000000000000000000000000000000000000000000900463ffffffff1680631a244e7c1461009e57806333dccbbc146101c3578063422c29a4146102285780634e989a4c146102ce57806359fc1a6e146102f9578063a75fe8e114610394578063ed26cae8146103fd578063efeb5f1f14610486578063f95bd6f7146104ef575b600080fd5b3480156100aa57600080fd5b50610181600480360360408110156100c157600080fd5b81019080803573ffffffffffffffffffffffffffffffffffffffff169060200190929190803590602001906401000000008111156100fe57600080fd5b82018360208201111561011057600080fd5b8035906020019184602083028401116401000000008311171561013257600080fd5b919080806020026020016040519081016040528093929190818152602001838360200280828437600081840152601f19601f820116905080830192505050505050509192919290505050610574565b604051808273ffffffffffffffffffffffffffffffffffffffff1673ffffffffffffffffffffffffffffffffffffffff16815260200191505060405180910390f35b3480156101cf57600080fd5b50610212600480360360208110156101e657600080fd5b81019080803573ffffffffffffffffffffffffffffffffffffffff1690602001909291905050506108c0565b6040518082815260200191505060405180910390f35b34801561023457600080fd5b506102776004803603602081101561024b57600080fd5b81019080803573ffffffffffffffffffffffffffffffffffffffff1690602001909291905050506109af565b6040518080602001828103825283818151815260200191508051906020019060200280838360005b838110156102ba57808201518184015260208101905061029f565b505050509050019250505060405180910390f35b3480156102da57600080fd5b506102e3610af4565b6040518082815260200191505060405180910390f35b34801561030557600080fd5b506103526004803603604081101561031c57600080fd5b81019080803573ffffffffffffffffffffffffffffffffffffffff16906020019092919080359060200190929190505050610afa565b604051808273ffffffffffffffffffffffffffffffffffffffff1673ffffffffffffffffffffffffffffffffffffffff16815260200191505060405180910390f35b3480156103a057600080fd5b506103e3600480360360208110156103b757600080fd5b81019080803573ffffffffffffffffffffffffffffffffffffffff169060200190929190505050610bf2565b604051808215151515815260200191505060405180910390f35b34801561040957600080fd5b5061046c6004803603604081101561042057600080fd5b81019080803573ffffffffffffffffffffffffffffffffffffffff169060200190929190803573ffffffffffffffffffffffffffffffffffffffff169060200190929190505050610d96565b604051808215151515815260200191505060405180910390f35b34801561049257600080fd5b506104d5600480360360208110156104a957600080fd5b81019080803573ffffffffffffffffffffffffffffffffffffffff169060200190929190505050610eba565b604051808215151515815260200191505060405180910390f35b3480156104fb57600080fd5b5061055e6004803603604081101561051257600080fd5b81019080803573ffffffffffffffffffffffffffffffffffffffff169060200190929190803573ffffffffffffffffffffffffffffffffffffffff169060200190929190505050611057565b6040518082815260200191505060405180910390f35b60008073ffffffffffffffffffffffffffffffffffffffff168373ffffffffffffffffffffffffffffffffffffffff16141515156105b157600080fd5b8273ffffffffffffffffffffffffffffffffffffffff16631a244e7c33846040518363ffffffff167c0100000000000000000000000000000000000000000000000000000000028152600401808373ffffffffffffffffffffffffffffffffffffffff1673ffffffffffffffffffffffffffffffffffffffff16815260200180602001828103825283818151815260200191508051906020019060200280838360005b8381101561066f578082015181840152602081019050610654565b505050509050019350505050602060405180830381600087803b15801561069557600080fd5b505af11580156106a9573d6000803e3d6000fd5b505050506040513d60208110156106bf57600080fd5b81019080805190602001909291905050509050600073ffffffffffffffffffffffffffffffffffffffff168173ffffffffffffffffffffffffffffffffffffffff161415151561070e57600080fd5b600160003373ffffffffffffffffffffffffffffffffffffffff1673ffffffffffffffffffffffffffffffffffffffff16815260200190815260200160002073__ListLib_______________________________63a45c62aa9091836040518363ffffffff167c0100000000000000000000000000000000000000000000000000000000028152600401808381526020018273ffffffffffffffffffffffffffffffffffffffff1673ffffffffffffffffffffffffffffffffffffffff1681526020019250505060206040518083038186803b1580156107ed57600080fd5b505af4158015610801573d6000803e3d6000fd5b505050506040513d602081101561081757600080fd5b8101908080519060200190929190505050503373ffffffffffffffffffffffffffffffffffffffff168373ffffffffffffffffffffffffffffffffffffffff167fe78b8ef631cdb1c7eab040bf8895a32210784ff81663b7473dfcfa4f8bdadda983604051808273ffffffffffffffffffffffffffffffffffffffff1673ffffffffffffffffffffffffffffffffffffffff16815260200191505060405180910390a392915050565b6000600160008373ffffffffffffffffffffffffffffffffffffffff1673ffffffffffffffffffffffffffffffffffffffff16815260200190815260200160002073__ListLib_______________________________630faa9b9890916040518263ffffffff167c01000000000000000000000000000000000000000000000000000000000281526004018082815260200191505060206040518083038186803b15801561096d57600080fd5b505af4158015610981573d6000803e3d6000fd5b505050506040513d602081101561099757600080fd5b81019080805190602001909291905050509050919050565b6060600160008373ffffffffffffffffffffffffffffffffffffffff1673ffffffffffffffffffffffffffffffffffffffff16815260200190815260200160002073__ListLib_______________________________6357abf55690916040518263ffffffff167c01000000000000000000000000000000000000000000000000000000000281526004018082815260200191505060006040518083038186803b158015610a5c57600080fd5b505af4158015610a70573d6000803e3d6000fd5b505050506040513d6000823e3d601f19601f820116820180604052506020811015610a9a57600080fd5b810190808051640100000000811115610ab257600080fd5b82810190506020810184811115610ac857600080fd5b8151856020820283011164010000000082111715610ae557600080fd5b50509291905050509050919050565b60005481565b6000600160008473ffffffffffffffffffffffffffffffffffffffff1673ffffffffffffffffffffffffffffffffffffffff16815260200190815260200160002073__ListLib_______________________________63a544c2139091846040518363ffffffff167c0100000000000000000000000000000000000000000000000000000000028152600401808381526020018281526020019250505060206040518083038186803b158015610baf57600080fd5b505af4158015610bc3573d6000803e3d6000fd5b505050506040513d6020811015610bd957600080fd5b8101908080519060200190929190505050905092915050565b6000600160003373ffffffffffffffffffffffffffffffffffffffff1673ffffffffffffffffffffffffffffffffffffffff16815260200190815260200160002073__ListLib_______________________________63af9fe56b9091846040518363ffffffff167c0100000000000000000000000000000000000000000000000000000000028152600401808381526020018273ffffffffffffffffffffffffffffffffffffffff1673ffffffffffffffffffffffffffffffffffffffff1681526020019250505060206040518083038186803b158015610cd357600080fd5b505af4158015610ce7573d6000803e3d6000fd5b505050506040513d6020811015610cfd57600080fd5b810190808051906020019092919050505090508015610d91573373ffffffffffffffffffffffffffffffffffffffff167fc271a19d5cf9958aaacae360c3870c2847dc24d02f03a6a2889a0fcfacf46e0683604051808273ffffffffffffffffffffffffffffffffffffffff1673ffffffffffffffffffffffffffffffffffffffff16815260200191505060405180910390a25b919050565b6000600160008473ffffffffffffffffffffffffffffffffffffffff1673ffffffffffffffffffffffffffffffffffffffff16815260200190815260200160002073__ListLib_______________________________632b63aaef9091846040518363ffffffff167c0100000000000000000000000000000000000000000000000000000000028152600401808381526020018273ffffffffffffffffffffffffffffffffffffffff1673ffffffffffffffffffffffffffffffffffffffff1681526020019250505060206040518083038186803b158015610e7757600080fd5b505af4158015610e8b573d6000803e3d6000fd5b505050506040513d6020811015610ea157600080fd5b8101908080519060200190929190505050905092915050565b6000600160003373ffffffffffffffffffffffffffffffffffffffff1673ffffffffffffffffffffffffffffffffffffffff16815260200190815260200160002073__ListLib_______________________________63a45c62aa9091846040518363ffffffff167c0100000000000000000000000000000000000000000000000000000000028152600401808381526020018273ffffffffffffffffffffffffffffffffffffffff1673ffffffffffffffffffffffffffffffffffffffff1681526020019250505060206040518083038186803b158015610f9b57600080fd5b505af4158015610faf573d6000803e3d6000fd5b505050506040513d6020811015610fc557600080fd5b810190808051906020019092919050505090503373ffffffffffffffffffffffffffffffffffffffff167ff9fe8c8f6812279aad6b2f8051214c6a19512a6af9fe0a1a821c0e96b11c199583604051808273ffffffffffffffffffffffffffffffffffffffff1673ffffffffffffffffffffffffffffffffffffffff16815260200191505060405180910390a2919050565b6000600160008473ffffffffffffffffffffffffffffffffffffffff1673ffffffffffffffffffffffffffffffffffffffff16815260200190815260200160002073__ListLib_______________________________63170769759091846040518363ffffffff167c0100000000000000000000000000000000000000000000000000000000028152600401808381526020018273ffffffffffffffffffffffffffffffffffffffff1673ffffffffffffffffffffffffffffffffffffffff1681526020019250505060206040518083038186803b15801561113857600080fd5b505af415801561114c573d6000803e3d6000fd5b505050506040513d602081101561116257600080fd5b810190808051906020019092919050505090509291505056fea165627a7a72305820c9033bd71376f719173a57b1adac553e6a2f3407e04164408b8a02b75d9d436c0029",
  "source": "pragma solidity ^0.5.0;\r\n\r\nimport \"./DelegatedWalletFactory.sol\";\r\n\r\n/// @title DelegatedWalletManager Contract\r\n/// @author Joseph Reed\r\n/// @dev This contract's goal is to make it easy for anyone to manage existing and new delagated wallets\r\ncontract DelegatedWalletManager {\r\n\r\n    using ListLib for ListLib.AddressList;              // Import the data structure AddressList from the ListLib contract\r\n\r\n    uint public blockCreated;                           // The block the factory was deployed\r\n    \r\n    mapping (address => ListLib.AddressList) wallets;   // The list of wallets added by each account\r\n\r\n    /// @notice Constructor to create a DelegatedWalletManager\r\n    constructor () public {\r\n        blockCreated = block.number;\r\n    }\r\n\r\n    /// @notice Adds a wallet to the account list.\r\n    /// @param factory Deploys a new delegated wallet from the provided 'factory'\r\n    /// @param delegates A list of predefined delegates to add to the wallet\r\n    /// @return True if the wallet was successfully created\r\n    function createWallet (DelegatedWalletFactory factory, address[] memory delegates) \r\n    public returns (DelegatedWallet wallet) {\r\n        require(address(factory) != address(0x0));\r\n\r\n        wallet = factory.createWallet(msg.sender, delegates);\r\n        require(address(wallet) != address(0x0));\r\n        \r\n        wallets[msg.sender].add(address(wallet));\r\n        emit CreateWallet_event(address(factory), msg.sender, address(wallet));\r\n    }\r\n\r\n    /// @notice Adds a wallet to the account list.\r\n    /// @param wallet The delegated wallet to add to the account list\r\n    /// @return True if the wallet was successfully added\r\n    function addWallet (DelegatedWallet wallet) public returns (bool success) {\r\n        success = wallets[msg.sender].add(address(wallet));\r\n        emit AddWallet_event(msg.sender, address(wallet));\r\n    }\r\n\r\n    /// @notice Removes a wallet from the account list.\r\n    /// @param wallet The delegated wallet to remove from the account list\r\n    /// @return True if the wallet was successfully removed\r\n    function removeWallet (DelegatedWallet wallet) public returns (bool success) {\r\n        success = wallets[msg.sender].remove(address(wallet));\r\n        if(success)\r\n            emit RemoveWallet_event(msg.sender, address(wallet));\r\n    }\r\n\r\n    /// @notice Fetches a wallet list from a given account.\r\n    /// @param account The given account from which to fetch the wallet list\r\n    /// @return an address array of wallets owned by 'account'\r\n    function getWallets (address account) public view returns (address[] memory) {\r\n        return wallets[account].get();\r\n    }\r\n    \r\n    /// @notice Fetches a how many wallets are in the list from a given account.\r\n    /// @param account The given account from which to fetch the wallet list\r\n    /// @return the total number of wallets\r\n    function totalWallets (address account) public view returns (uint) {\r\n        return wallets[account].getLength();\r\n    }\r\n    \r\n    /// @notice Shows if a wallet exists in the wallet list from a given account.\r\n    /// @param account The given account to check\r\n    /// @param wallet The given wallet to check for\r\n    /// @return True if the given wallet exists an accounts wallet list\r\n    function contains (address account, DelegatedWallet wallet) public view returns (bool) {\r\n        return wallets[account].contains(address(wallet));\r\n    }\r\n\r\n    /// @notice Fetches the wallet at index 'i' from the 'account' wallet list\r\n    /// @param account The given account to check\r\n    /// @param i The index to check\r\n    /// @return The wallet address that exists at index 'i' in the 'account' wallet list\r\n    function index (address account, uint i) public view returns (DelegatedWallet) {\r\n        return DelegatedWallet(address(uint160(wallets[account].index(i))));\r\n    }\r\n\r\n    /// @notice Fetches the index of a given 'wallet' from a given 'account' wallet list\r\n    /// @param account The given account to check\r\n    /// @param wallet The given wallet to check\r\n    /// @return The current index of 'wallet' in 'account' wallet list\r\n    function indexOf (address account, DelegatedWallet wallet) public view returns (uint) {\r\n        return wallets[account].indexOf(address(wallet));\r\n    }\r\n\r\n    event AddWallet_event(address indexed owner, address wallet);\r\n    event CreateWallet_event(address indexed factory, address indexed owner, address wallet);\r\n    event RemoveWallet_event(address indexed owner, address wallet);\r\n\r\n}\r\n",
  "sourcePath": "C:/Users/My/Documents/GitHub/everchain-project/delegated-wallet/contracts/DelegatedWalletManager.sol",
  "compiler": {
    "name": "solc",
    "version": "0.5.0+commit.1d4f565a.Emscripten.clang"
  },
  "schemaVersion": "3.0.0-beta.2",
  "updatedAt": "2018-11-28T00:00:15.373Z",
  "devdoc": {
    "details": "This contract's goal is to make it easy for anyone to manage existing and new delagated wallets",
    "methods": {
      "addWallet(address)": {
        "return": "True if the wallet was successfully added"
      },
      "contains(address,address)": {
        "return": "True if the given wallet exists an accounts wallet list"
      },
      "createWallet(address,address[])": {
        "return": "True if the wallet was successfully created"
      },
      "getWallets(address)": {
        "return": "an address array of wallets owned by 'account'"
      },
      "index(address,uint256)": {
        "return": "The wallet address that exists at index 'i' in the 'account' wallet list"
      },
      "indexOf(address,address)": {
        "return": "The current index of 'wallet' in 'account' wallet list"
      },
      "removeWallet(address)": {
        "return": "True if the wallet was successfully removed"
      },
      "totalWallets(address)": {
        "return": "the total number of wallets"
      }
    }
  },
  "userdoc": {
    "methods": {
      "constructor": "Constructor to create a DelegatedWalletManager"
    }
  }
}