{
  "contractName": "DelegatedWalletFactory",
  "abi": [
    {
      "constant": true,
      "inputs": [],
      "name": "blockCreated",
      "outputs": [
        {
          "name": "",
          "type": "uint256"
        }
      ],
      "payable": false,
      "stateMutability": "view",
      "type": "function",
      "signature": "0x4e989a4c"
    },
    {
      "constant": true,
      "inputs": [],
      "name": "blueprint",
      "outputs": [
        {
          "name": "",
          "type": "address"
        }
      ],
      "payable": false,
      "stateMutability": "view",
      "type": "function",
      "signature": "0xc05efa15"
    },
    {
      "inputs": [
        {
          "name": "_blueprint",
          "type": "address"
        }
      ],
      "payable": false,
      "stateMutability": "nonpayable",
      "type": "constructor",
      "signature": "constructor"
    },
    {
      "anonymous": false,
      "inputs": [
        {
          "indexed": false,
          "name": "caller",
          "type": "address"
        },
        {
          "indexed": false,
          "name": "owner",
          "type": "address"
        },
        {
          "indexed": false,
          "name": "wallet",
          "type": "address"
        }
      ],
      "name": "CreateWallet_event",
      "type": "event",
      "signature": "0xe78b8ef631cdb1c7eab040bf8895a32210784ff81663b7473dfcfa4f8bdadda9"
    },
    {
      "anonymous": false,
      "inputs": [
        {
          "indexed": true,
          "name": "target",
          "type": "address"
        },
        {
          "indexed": false,
          "name": "clone",
          "type": "address"
        }
      ],
      "name": "CloneCreated",
      "type": "event",
      "signature": "0x3d2b821286d97aa9d35330d87a82f7b548b9737b10e2d1ba59994edfd50e9d2b"
    },
    {
      "constant": false,
      "inputs": [
        {
          "name": "owner",
          "type": "address"
        },
        {
          "name": "delegates",
          "type": "address[]"
        }
      ],
      "name": "createWallet",
      "outputs": [
        {
          "name": "",
          "type": "address"
        }
      ],
      "payable": true,
      "stateMutability": "payable",
      "type": "function",
      "signature": "0x1a244e7c"
    }
  ],
  "bytecode": "0x608060405234801561001057600080fd5b506040516020806107c98339810180604052602081101561003057600080fd5b81019080805190602001909291905050504360008190555080600160006101000a81548173ffffffffffffffffffffffffffffffffffffffff021916908373ffffffffffffffffffffffffffffffffffffffff16021790555050610730806100996000396000f3fe608060405260043610610051576000357c0100000000000000000000000000000000000000000000000000000000900480631a244e7c146100565780634e989a4c1461016e578063c05efa1514610199575b600080fd5b61012c6004803603604081101561006c57600080fd5b81019080803573ffffffffffffffffffffffffffffffffffffffff169060200190929190803590602001906401000000008111156100a957600080fd5b8201836020820111156100bb57600080fd5b803590602001918460208302840111640100000000831117156100dd57600080fd5b919080806020026020016040519081016040528093929190818152602001838360200280828437600081840152601f19601f8201169050808301925050505050505091929192905050506101f0565b604051808273ffffffffffffffffffffffffffffffffffffffff1673ffffffffffffffffffffffffffffffffffffffff16815260200191505060405180910390f35b34801561017a57600080fd5b506101836105bd565b6040518082815260200191505060405180910390f35b3480156101a557600080fd5b506101ae6105c3565b604051808273ffffffffffffffffffffffffffffffffffffffff1673ffffffffffffffffffffffffffffffffffffffff16815260200191505060405180910390f35b60008061021e600160009054906101000a900473ffffffffffffffffffffffffffffffffffffffff166105e9565b905060008190508073ffffffffffffffffffffffffffffffffffffffff1663c4d66de8306040518263ffffffff167c0100000000000000000000000000000000000000000000000000000000028152600401808273ffffffffffffffffffffffffffffffffffffffff1673ffffffffffffffffffffffffffffffffffffffff168152602001915050600060405180830381600087803b1580156102c057600080fd5b505af11580156102d4573d6000803e3d6000fd5b5050505060008090505b84518110156103e2578173ffffffffffffffffffffffffffffffffffffffff1663e71bdf41868381518110151561031157fe5b906020019060200201516040518263ffffffff167c0100000000000000000000000000000000000000000000000000000000028152600401808273ffffffffffffffffffffffffffffffffffffffff1673ffffffffffffffffffffffffffffffffffffffff168152602001915050602060405180830381600087803b15801561039957600080fd5b505af11580156103ad573d6000803e3d6000fd5b505050506040513d60208110156103c357600080fd5b81019080805190602001909291905050505080806001019150506102de565b508073ffffffffffffffffffffffffffffffffffffffff1663f2fde38b866040518263ffffffff167c0100000000000000000000000000000000000000000000000000000000028152600401808273ffffffffffffffffffffffffffffffffffffffff1673ffffffffffffffffffffffffffffffffffffffff168152602001915050600060405180830381600087803b15801561047e57600080fd5b505af1158015610492573d6000803e3d6000fd5b5050505060003411156104e7578073ffffffffffffffffffffffffffffffffffffffff166108fc349081150290604051600060405180830381858888f193505050501580156104e5573d6000803e3d6000fd5b505b7fe78b8ef631cdb1c7eab040bf8895a32210784ff81663b7473dfcfa4f8bdadda9338683604051808473ffffffffffffffffffffffffffffffffffffffff1673ffffffffffffffffffffffffffffffffffffffff1681526020018373ffffffffffffffffffffffffffffffffffffffff1673ffffffffffffffffffffffffffffffffffffffff1681526020018273ffffffffffffffffffffffffffffffffffffffff1673ffffffffffffffffffffffffffffffffffffffff168152602001935050505060405180910390a1809250505092915050565b60005481565b600160009054906101000a900473ffffffffffffffffffffffffffffffffffffffff1681565b600060608060405190810160405280603f81526020017f600034603b57603080600f833981f36000368180378080368173bebebebebebe81526020017fbebebebebebebebebebebebebebe5af43d82803e15602c573d90f35b3d90fd0081525090506000836c0100000000000000000000000002905060008090505b60148110156106ed57818160148110151561067c57fe5b1a7f0100000000000000000000000000000000000000000000000000000000000000028382601a018151811015156106b057fe5b9060200101907effffffffffffffffffffffffffffffffffffffffffffffffffffffffffffff1916908160001a9053508080600101915050610665565b5081516020830181816000f094505050505091905056fea165627a7a7230582010050b75805e7f209e45ad9e916829b040d25014c0d93cdd061e3996c27d19430029",
  "source": "pragma solidity ^0.5.0;\n\nimport \"./external/CloneFactory.sol\";\nimport \"./DelegatedWallet.sol\";\n\n/// @title DelegatedWalletFactory Contract\n/// @author Joseph Reed\n/// @dev The DelegatedWalletFactory makes it easy to deploy delegated wallet. It provides several\n///      helper functions to deploy a wallet in several ways\ncontract DelegatedWalletFactory is IDelegatedWalletFactory, CloneFactory {\n    \n    uint public blockCreated;           // The block the factory was deployed\n    address public blueprint;   // The delegated wallet blueprint to supply the clone factory\n\n    /// @notice Constructor to create a DelegatedWalletFactory\n    /// @param _blueprint The delegated wallet blueprint \n    constructor (address _blueprint) public {\n        blockCreated = block.number;    // The block number at the time of deployment\n        blueprint = _blueprint;         // The blueprint for every delegated wallet\n    }\n\n    /// @notice Creates a delegated wallet with the owner set to 'owner' and predefined 'delegates'\n    /// @param owner The owner of the delegated wallet\n    /// @param delegates The owner of the delegated wallet\n    /// @return The delegated wallet address\n    function createWallet (address owner, address[] memory delegates) public payable returns (IDelegatedWallet) {\n        // see https://solidity.readthedocs.io/en/v0.5.0/050-breaking-changes.html?highlight=address_make_payable for converting to payable addresses\n        address payable clone = address(uint160(createClone(blueprint)));\n        DelegatedWallet wallet = DelegatedWallet(clone);\n        wallet.initialize(address(this));\n\n        for(uint i = 0; i < delegates.length; i++)\n            wallet.addDelegate(delegates[i]);\n        \n        wallet.transferOwnership(owner);\n        \n        if(msg.value > 0)\n            address(wallet).transfer(msg.value);\n\n        emit CreateWallet_event(msg.sender, owner, address(wallet));\n\n        return wallet;\n    }\n    \n    event CreateWallet_event (address caller, address owner, address wallet);\n    \n}\n",
  "sourcePath": "/home/joe/Documents/github/everchain-project/delegated-wallet/contracts/DelegatedWalletFactory.sol",
  "compiler": {
    "name": "solc",
    "version": "0.5.1+commit.c8a2cb62.Emscripten.clang"
  },
  "schemaVersion": "3.0.0-beta.2",
  "updatedAt": "2018-12-05T09:03:01.034Z",
  "devdoc": {
    "author": "Joseph Reed",
    "details": "The DelegatedWalletFactory makes it easy to deploy delegated wallet. It provides several      helper functions to deploy a wallet in several ways",
    "methods": {
      "constructor": {
        "params": {
          "_blueprint": "The delegated wallet blueprint "
        }
      },
      "createWallet(address,address[])": {
        "params": {
          "delegates": "The owner of the delegated wallet",
          "owner": "The owner of the delegated wallet"
        },
        "return": "The delegated wallet address"
      }
    },
    "title": "DelegatedWalletFactory Contract"
  },
  "userdoc": {
    "methods": {
      "constructor": "Constructor to create a DelegatedWalletFactory",
      "createWallet(address,address[])": {
        "notice": "Creates a delegated wallet with the owner set to 'owner' and predefined 'delegates'"
      }
    }
  }
}