{
  "contractName": "DelegatedWallet",
  "abi": [
    {
      "constant": true,
      "inputs": [],
      "name": "blockCreated",
      "outputs": [
        {
          "name": "",
          "type": "uint256"
        }
      ],
      "payable": false,
      "stateMutability": "view",
      "type": "function",
      "signature": "0x4e989a4c"
    },
    {
      "constant": true,
      "inputs": [],
      "name": "owner",
      "outputs": [
        {
          "name": "",
          "type": "address"
        }
      ],
      "payable": false,
      "stateMutability": "view",
      "type": "function",
      "signature": "0x8da5cb5b"
    },
    {
      "constant": true,
      "inputs": [],
      "name": "factory",
      "outputs": [
        {
          "name": "",
          "type": "address"
        }
      ],
      "payable": false,
      "stateMutability": "view",
      "type": "function",
      "signature": "0xc45a0155"
    },
    {
      "constant": false,
      "inputs": [
        {
          "name": "_newOwner",
          "type": "address"
        }
      ],
      "name": "transferOwnership",
      "outputs": [],
      "payable": false,
      "stateMutability": "nonpayable",
      "type": "function",
      "signature": "0xf2fde38b"
    },
    {
      "payable": true,
      "stateMutability": "payable",
      "type": "fallback"
    },
    {
      "anonymous": false,
      "inputs": [
        {
          "indexed": true,
          "name": "sender",
          "type": "address"
        },
        {
          "indexed": false,
          "name": "amount",
          "type": "uint256"
        }
      ],
      "name": "Deposit_event",
      "type": "event",
      "signature": "0x13d8b731cfddb1e8d6d230a4f64afe94251cf4c4fa93e730ebda89a63f8baa21"
    },
    {
      "anonymous": false,
      "inputs": [
        {
          "indexed": false,
          "name": "delegate",
          "type": "address"
        }
      ],
      "name": "AddDelegate_event",
      "type": "event",
      "signature": "0x397c0dccec32ef33cd10bec82160d77ccf7cdb5333fdce70545bd3785433fe56"
    },
    {
      "anonymous": false,
      "inputs": [
        {
          "indexed": false,
          "name": "delegate",
          "type": "address"
        }
      ],
      "name": "RemoveDelegate_event",
      "type": "event",
      "signature": "0x86fb0a934cb6730198dcf6f38b2f664a9e7cf3ff7d82f6a32dd3b64e2980b0ae"
    },
    {
      "anonymous": false,
      "inputs": [
        {
          "indexed": true,
          "name": "delegate",
          "type": "address"
        },
        {
          "indexed": true,
          "name": "token",
          "type": "address"
        },
        {
          "indexed": true,
          "name": "recipient",
          "type": "address"
        },
        {
          "indexed": false,
          "name": "amount",
          "type": "uint256"
        },
        {
          "indexed": false,
          "name": "success",
          "type": "bool"
        }
      ],
      "name": "Transfer_event",
      "type": "event",
      "signature": "0x2b18d03bce2e8cb16f892dea098b0ab4a47885659c15a7e2c68ce7c56c994571"
    },
    {
      "anonymous": false,
      "inputs": [
        {
          "indexed": true,
          "name": "delegate",
          "type": "address"
        },
        {
          "indexed": true,
          "name": "callAddress",
          "type": "address"
        },
        {
          "indexed": false,
          "name": "callData",
          "type": "bytes"
        },
        {
          "indexed": false,
          "name": "returnData",
          "type": "bytes"
        },
        {
          "indexed": false,
          "name": "success",
          "type": "bool"
        }
      ],
      "name": "Call_event",
      "type": "event",
      "signature": "0xd6023b67072ab1129a22f93ea88ca0c9507d3a1c6685f1c274a95be83aeae8c6"
    },
    {
      "constant": false,
      "inputs": [
        {
          "name": "_owner",
          "type": "address"
        }
      ],
      "name": "initialize",
      "outputs": [],
      "payable": false,
      "stateMutability": "nonpayable",
      "type": "function",
      "signature": "0xc4d66de8"
    },
    {
      "constant": false,
      "inputs": [
        {
          "name": "token",
          "type": "address"
        },
        {
          "name": "recipient",
          "type": "address"
        },
        {
          "name": "amount",
          "type": "uint256"
        }
      ],
      "name": "transfer",
      "outputs": [
        {
          "name": "success",
          "type": "bool"
        }
      ],
      "payable": false,
      "stateMutability": "nonpayable",
      "type": "function",
      "signature": "0xbeabacc8"
    },
    {
      "constant": false,
      "inputs": [
        {
          "name": "callAddress",
          "type": "address"
        },
        {
          "name": "callData",
          "type": "bytes"
        }
      ],
      "name": "call",
      "outputs": [
        {
          "name": "success",
          "type": "bool"
        },
        {
          "name": "returnData",
          "type": "bytes"
        }
      ],
      "payable": false,
      "stateMutability": "nonpayable",
      "type": "function",
      "signature": "0x1b8b921d"
    },
    {
      "constant": false,
      "inputs": [
        {
          "name": "delegate",
          "type": "address"
        }
      ],
      "name": "addDelegate",
      "outputs": [
        {
          "name": "success",
          "type": "bool"
        }
      ],
      "payable": false,
      "stateMutability": "nonpayable",
      "type": "function",
      "signature": "0xe71bdf41"
    },
    {
      "constant": false,
      "inputs": [
        {
          "name": "delegate",
          "type": "address"
        }
      ],
      "name": "removeDelegate",
      "outputs": [
        {
          "name": "success",
          "type": "bool"
        }
      ],
      "payable": false,
      "stateMutability": "nonpayable",
      "type": "function",
      "signature": "0x67e7646f"
    },
    {
      "constant": true,
      "inputs": [
        {
          "name": "token",
          "type": "address"
        }
      ],
      "name": "balanceOf",
      "outputs": [
        {
          "name": "balance",
          "type": "uint256"
        }
      ],
      "payable": false,
      "stateMutability": "view",
      "type": "function",
      "signature": "0x70a08231"
    },
    {
      "constant": true,
      "inputs": [
        {
          "name": "account",
          "type": "address"
        }
      ],
      "name": "isDelegate",
      "outputs": [
        {
          "name": "",
          "type": "bool"
        }
      ],
      "payable": false,
      "stateMutability": "view",
      "type": "function",
      "signature": "0x07779627"
    },
    {
      "constant": true,
      "inputs": [],
      "name": "getDelegates",
      "outputs": [
        {
          "name": "",
          "type": "address[]"
        }
      ],
      "payable": false,
      "stateMutability": "view",
      "type": "function",
      "signature": "0xc838ccb6"
    },
    {
      "constant": true,
      "inputs": [
        {
          "name": "i",
          "type": "uint256"
        }
      ],
      "name": "index",
      "outputs": [
        {
          "name": "",
          "type": "address"
        }
      ],
      "payable": false,
      "stateMutability": "view",
      "type": "function",
      "signature": "0x335932fc"
    },
    {
      "constant": true,
      "inputs": [
        {
          "name": "delegate",
          "type": "address"
        }
      ],
      "name": "indexOf",
      "outputs": [
        {
          "name": "",
          "type": "uint256"
        }
      ],
      "payable": false,
      "stateMutability": "view",
      "type": "function",
      "signature": "0xfd6aad25"
    },
    {
      "constant": true,
      "inputs": [],
      "name": "totalDelegates",
      "outputs": [
        {
          "name": "",
          "type": "uint256"
        }
      ],
      "payable": false,
      "stateMutability": "view",
      "type": "function",
      "signature": "0xa5551bee"
    }
  ],
  "bytecode": "0x6080604052336000806101000a81548173ffffffffffffffffffffffffffffffffffffffff021916908373ffffffffffffffffffffffffffffffffffffffff16021790555061177e806100536000396000f3fe6080604052600436106100d5576000357c01000000000000000000000000000000000000000000000000000000009004806307779627146101255780631b8b921d1461018e578063335932fc146102fa5780634e989a4c1461037557806367e7646f146103a057806370a08231146104095780638da5cb5b1461046e578063a5551bee146104c5578063beabacc8146104f0578063c45a015514610583578063c4d66de8146105da578063c838ccb61461062b578063e71bdf4114610697578063f2fde38b14610700578063fd6aad2514610751575b3373ffffffffffffffffffffffffffffffffffffffff167f13d8b731cfddb1e8d6d230a4f64afe94251cf4c4fa93e730ebda89a63f8baa21346040518082815260200191505060405180910390a2005b34801561013157600080fd5b506101746004803603602081101561014857600080fd5b81019080803573ffffffffffffffffffffffffffffffffffffffff1690602001909291905050506107b6565b604051808215151515815260200191505060405180910390f35b34801561019a57600080fd5b50610274600480360360408110156101b157600080fd5b81019080803573ffffffffffffffffffffffffffffffffffffffff169060200190929190803590602001906401000000008111156101ee57600080fd5b82018360208201111561020057600080fd5b8035906020019184600183028401116401000000008311171561022257600080fd5b91908080601f016020809104026020016040519081016040528093929190818152602001838380828437600081840152601f19601f82011690508083019250505050505050919291929050505061089c565b604051808315151515815260200180602001828103825283818151815260200191508051906020019080838360005b838110156102be5780820151818401526020810190506102a3565b50505050905090810190601f1680156102eb5780820380516001836020036101000a031916815260200191505b50935050505060405180910390f35b34801561030657600080fd5b506103336004803603602081101561031d57600080fd5b8101908080359060200190929190505050610b4a565b604051808273ffffffffffffffffffffffffffffffffffffffff1673ffffffffffffffffffffffffffffffffffffffff16815260200191505060405180910390f35b34801561038157600080fd5b5061038a610c04565b6040518082815260200191505060405180910390f35b3480156103ac57600080fd5b506103ef600480360360208110156103c357600080fd5b81019080803573ffffffffffffffffffffffffffffffffffffffff169060200190929190505050610c0a565b604051808215151515815260200191505060405180910390f35b34801561041557600080fd5b506104586004803603602081101561042c57600080fd5b81019080803573ffffffffffffffffffffffffffffffffffffffff169060200190929190505050610db5565b6040518082815260200191505060405180910390f35b34801561047a57600080fd5b50610483610ee6565b604051808273ffffffffffffffffffffffffffffffffffffffff1673ffffffffffffffffffffffffffffffffffffffff16815260200191505060405180910390f35b3480156104d157600080fd5b506104da610f0b565b6040518082815260200191505060405180910390f35b3480156104fc57600080fd5b506105696004803603606081101561051357600080fd5b81019080803573ffffffffffffffffffffffffffffffffffffffff169060200190929190803573ffffffffffffffffffffffffffffffffffffffff16906020019092919080359060200190929190505050610fbb565b604051808215151515815260200191505060405180910390f35b34801561058f57600080fd5b50610598611241565b604051808273ffffffffffffffffffffffffffffffffffffffff1673ffffffffffffffffffffffffffffffffffffffff16815260200191505060405180910390f35b3480156105e657600080fd5b50610629600480360360208110156105fd57600080fd5b81019080803573ffffffffffffffffffffffffffffffffffffffff169060200190929190505050611267565b005b34801561063757600080fd5b50610640611392565b6040518080602001828103825283818151815260200191508051906020019060200280838360005b83811015610683578082015181840152602081019050610668565b505050509050019250505060405180910390f35b3480156106a357600080fd5b506106e6600480360360208110156106ba57600080fd5b81019080803573ffffffffffffffffffffffffffffffffffffffff169060200190929190505050611423565b604051808215151515815260200191505060405180910390f35b34801561070c57600080fd5b5061074f6004803603602081101561072357600080fd5b81019080803573ffffffffffffffffffffffffffffffffffffffff1690602001909291905050506115ce565b005b34801561075d57600080fd5b506107a06004803603602081101561077457600080fd5b81019080803573ffffffffffffffffffffffffffffffffffffffff16906020019092919050505061166c565b6040518082815260200191505060405180910390f35b6000600373__ListLib_______________________________632b63aaef9091846040518363ffffffff167c0100000000000000000000000000000000000000000000000000000000028152600401808381526020018273ffffffffffffffffffffffffffffffffffffffff1673ffffffffffffffffffffffffffffffffffffffff1681526020019250505060206040518083038186803b15801561085a57600080fd5b505af415801561086e573d6000803e3d6000fd5b505050506040513d602081101561088457600080fd5b81019080805190602001909291905050509050919050565b600060606108a9336107b6565b1515610943576040517f08c379a00000000000000000000000000000000000000000000000000000000081526004018080602001828103825260268152602001807f6f6e6c7920612064656c65676174652063616e2063616c6c207468697320667581526020017f6e6374696f6e000000000000000000000000000000000000000000000000000081525060400191505060405180910390fd5b8373ffffffffffffffffffffffffffffffffffffffff16836040518082805190602001908083835b602083101515610990578051825260208201915060208101905060208303925061096b565b6001836020036101000a0380198251168184511680821785525050505050509050019150506000604051808303816000865af19150503d80600081146109f2576040519150601f19603f3d011682016040523d82523d6000602084013e6109f7565b606091505b5080925081935050508373ffffffffffffffffffffffffffffffffffffffff163373ffffffffffffffffffffffffffffffffffffffff167fd6023b67072ab1129a22f93ea88ca0c9507d3a1c6685f1c274a95be83aeae8c685848660405180806020018060200184151515158152602001838103835286818151815260200191508051906020019080838360005b83811015610aa0578082015181840152602081019050610a85565b50505050905090810190601f168015610acd5780820380516001836020036101000a031916815260200191505b50838103825285818151815260200191508051906020019080838360005b83811015610b06578082015181840152602081019050610aeb565b50505050905090810190601f168015610b335780820380516001836020036101000a031916815260200191505b509550505050505060405180910390a39250929050565b6000600373__ListLib_______________________________63a544c2139091846040518363ffffffff167c0100000000000000000000000000000000000000000000000000000000028152600401808381526020018281526020019250505060206040518083038186803b158015610bc257600080fd5b505af4158015610bd6573d6000803e3d6000fd5b505050506040513d6020811015610bec57600080fd5b81019080805190602001909291905050509050919050565b60015481565b60008060009054906101000a900473ffffffffffffffffffffffffffffffffffffffff1673ffffffffffffffffffffffffffffffffffffffff163373ffffffffffffffffffffffffffffffffffffffff16141515610c6757600080fd5b600373__ListLib_______________________________63af9fe56b9091846040518363ffffffff167c0100000000000000000000000000000000000000000000000000000000028152600401808381526020018273ffffffffffffffffffffffffffffffffffffffff1673ffffffffffffffffffffffffffffffffffffffff1681526020019250505060206040518083038186803b158015610d0957600080fd5b505af4158015610d1d573d6000803e3d6000fd5b505050506040513d6020811015610d3357600080fd5b810190808051906020019092919050505090508015610db0577f86fb0a934cb6730198dcf6f38b2f664a9e7cf3ff7d82f6a32dd3b64e2980b0ae82604051808273ffffffffffffffffffffffffffffffffffffffff1673ffffffffffffffffffffffffffffffffffffffff16815260200191505060405180910390a15b919050565b60008073ffffffffffffffffffffffffffffffffffffffff168273ffffffffffffffffffffffffffffffffffffffff161415610e0a573073ffffffffffffffffffffffffffffffffffffffff16319050610ee1565b8173ffffffffffffffffffffffffffffffffffffffff166370a08231306040518263ffffffff167c0100000000000000000000000000000000000000000000000000000000028152600401808273ffffffffffffffffffffffffffffffffffffffff1673ffffffffffffffffffffffffffffffffffffffff16815260200191505060206040518083038186803b158015610ea357600080fd5b505afa158015610eb7573d6000803e3d6000fd5b505050506040513d6020811015610ecd57600080fd5b810190808051906020019092919050505090505b919050565b6000809054906101000a900473ffffffffffffffffffffffffffffffffffffffff1681565b6000600373__ListLib_______________________________630faa9b9890916040518263ffffffff167c01000000000000000000000000000000000000000000000000000000000281526004018082815260200191505060206040518083038186803b158015610f7b57600080fd5b505af4158015610f8f573d6000803e3d6000fd5b505050506040513d6020811015610fa557600080fd5b8101908080519060200190929190505050905090565b6000610fc6336107b6565b1515611060576040517f08c379a00000000000000000000000000000000000000000000000000000000081526004018080602001828103825260358152602001807f6f6e6c7920612064656c65676174652063616e207472616e7366657220746f6b81526020017f656e73206f7574206f66207468652077616c6c6574000000000000000000000081525060400191505060405180910390fd5b600073ffffffffffffffffffffffffffffffffffffffff168473ffffffffffffffffffffffffffffffffffffffff1614156110d1578273ffffffffffffffffffffffffffffffffffffffff166108fc839081150290604051600060405180830381858888f1935050505090506111b2565b8373ffffffffffffffffffffffffffffffffffffffff1663a9059cbb84846040518363ffffffff167c0100000000000000000000000000000000000000000000000000000000028152600401808373ffffffffffffffffffffffffffffffffffffffff1673ffffffffffffffffffffffffffffffffffffffff16815260200182815260200192505050602060405180830381600087803b15801561117457600080fd5b505af1158015611188573d6000803e3d6000fd5b505050506040513d602081101561119e57600080fd5b810190808051906020019092919050505090505b8273ffffffffffffffffffffffffffffffffffffffff168473ffffffffffffffffffffffffffffffffffffffff163373ffffffffffffffffffffffffffffffffffffffff167f2b18d03bce2e8cb16f892dea098b0ab4a47885659c15a7e2c68ce7c56c994571858560405180838152602001821515151581526020019250505060405180910390a49392505050565b600260009054906101000a900473ffffffffffffffffffffffffffffffffffffffff1681565b6000600154141515611307576040517f08c379a00000000000000000000000000000000000000000000000000000000081526004018080602001828103825260228152602001807f626c6f636b20637265617465642063616e206f6e6c7920626520736574206f6e81526020017f636500000000000000000000000000000000000000000000000000000000000081525060400191505060405180910390fd5b4360018190555033600260006101000a81548173ffffffffffffffffffffffffffffffffffffffff021916908373ffffffffffffffffffffffffffffffffffffffff160217905550806000806101000a81548173ffffffffffffffffffffffffffffffffffffffff021916908373ffffffffffffffffffffffffffffffffffffffff16021790555050565b6060600360000180548060200260200160405190810160405280929190818152602001828054801561141957602002820191906000526020600020905b8160009054906101000a900473ffffffffffffffffffffffffffffffffffffffff1673ffffffffffffffffffffffffffffffffffffffff16815260200190600101908083116113cf575b5050505050905090565b60008060009054906101000a900473ffffffffffffffffffffffffffffffffffffffff1673ffffffffffffffffffffffffffffffffffffffff163373ffffffffffffffffffffffffffffffffffffffff1614151561148057600080fd5b600373__ListLib_______________________________63a45c62aa9091846040518363ffffffff167c0100000000000000000000000000000000000000000000000000000000028152600401808381526020018273ffffffffffffffffffffffffffffffffffffffff1673ffffffffffffffffffffffffffffffffffffffff1681526020019250505060206040518083038186803b15801561152257600080fd5b505af4158015611536573d6000803e3d6000fd5b505050506040513d602081101561154c57600080fd5b8101908080519060200190929190505050905080156115c9577f397c0dccec32ef33cd10bec82160d77ccf7cdb5333fdce70545bd3785433fe5682604051808273ffffffffffffffffffffffffffffffffffffffff1673ffffffffffffffffffffffffffffffffffffffff16815260200191505060405180910390a15b919050565b6000809054906101000a900473ffffffffffffffffffffffffffffffffffffffff1673ffffffffffffffffffffffffffffffffffffffff163373ffffffffffffffffffffffffffffffffffffffff1614151561162957600080fd5b806000806101000a81548173ffffffffffffffffffffffffffffffffffffffff021916908373ffffffffffffffffffffffffffffffffffffffff16021790555050565b6000600373__ListLib_______________________________63170769759091846040518363ffffffff167c0100000000000000000000000000000000000000000000000000000000028152600401808381526020018273ffffffffffffffffffffffffffffffffffffffff1673ffffffffffffffffffffffffffffffffffffffff1681526020019250505060206040518083038186803b15801561171057600080fd5b505af4158015611724573d6000803e3d6000fd5b505050506040513d602081101561173a57600080fd5b8101908080519060200190929190505050905091905056fea165627a7a7230582015d24265415da89915df93ec27b7de6da02f1aa1a4416bd6e302826eafe281570029",
  "source": "pragma solidity ^0.5.0;\n\nimport \"./external/ERC20.sol\";\nimport \"./external/Owned.sol\";\nimport \"./external/ListLib.sol\";\nimport \"./IDelegatedWallet.sol\";\n\n/// @title DelegatedWallet Contract\n/// @author Joseph Reed\n/// @dev This contract's goal is to make it easy for anyone to add utility to their cryptocurrency wallet through\n///      the use of delegates. Delegates can transfer funds out of the wallet but cannot add or remove other delegates. \ncontract DelegatedWallet is Owned, IDelegatedWallet {\n\n    using ListLib for ListLib.AddressList; // Import the data structure AddressList from the ListLib contract\n\n    uint public blockCreated;       // records the block when the contract is created\n    address public factory;         // records the factory that deployed this wallet\n    ListLib.AddressList delegates;  // the list of delegates that can call the transfer function\n\n    /// @notice Initializes the wallet. Uses 'initialize()' instead of a constructor to make use of the clone \n    ///         factory at https://github.com/optionality/clone-factory. In general, 'initialize()' should be  \n    ///         called directly following it's deployment through the use of a factory.\n    /// @param _owner The address that owns the wallet\n    function initialize (address _owner) public {\n        require(blockCreated == 0, \"block created can only be set once\");\n\n        blockCreated = block.number;\n        factory = msg.sender;\n\n        owner = _owner;\n    }\n\n    /// @notice Allows accepting Ether as a payment\n    function () external payable {\n        emit Deposit_event(msg.sender, msg.value);\n    }\n\n///////////////////////////\n/// Delegate Functions\n///////////////////////////\n\n    /// @notice Send 'amount' of 'tokens' to 'recipient'\n    /// @param token The address of the token to transfer\n    /// @param recipient The address of the recipient\n    /// @param amount The amount of tokens to be transferred\n    /// @return True if the transfer was successful\n    function transfer (address token, address payable recipient, uint amount) public returns (bool success) {\n        require(isDelegate(msg.sender), \"only a delegate can transfer tokens out of the wallet\");\n\n        if(token == address(0x0))\n            success = recipient.send(amount);\n        else\n            success = ERC20(token).transfer(recipient, amount);\n        \n        emit Transfer_event(msg.sender, token, recipient, amount, success);\n    }\n\n    /// @notice Send 'amount' of 'tokens' to 'recipient'\n    /// @param callAddress The address of the token to transfer\n    /// @param callData The address of the recipient\n    /// @return success returns true if the call throws no errors. returnData contains the returned result of the call\n    function call(address callAddress, bytes memory callData) public onlyDelegates returns (bool success, bytes memory returnData) {\n        (success, returnData) = callAddress.call(callData);\n\n        emit Call_event(msg.sender, callAddress, callData, returnData, success);\n    }\n\n///////////////////////////\n/// Owner Functions\n///////////////////////////\n\n    /// @notice Add a new delegate to the list of delegates\n    /// @param delegate The address of the new delegate\n    /// @return True if the delegate was successfully added\n    function addDelegate(address delegate) public onlyOwner returns (bool success) {\n        success = delegates.add(delegate);\n        \n        if(success)\n            emit AddDelegate_event(delegate);\n    }\n    \n    /// @notice Remove an existing delegate from the list of delegates\n    /// @param delegate The address of an existing delegate\n    /// @return True if the delegate was successfully removed\n    function removeDelegate(address delegate) public onlyOwner returns (bool success) {\n        success = delegates.remove(delegate);\n        \n        if(success)\n            emit RemoveDelegate_event(delegate);\n    }\n\n///////////////////////////\n/// Getter Functions\n///////////////////////////\n\n    /// @notice Gets the balance of the provided token\n    /// @param token The token to fetch the balance of. address(0x0) == native ether\n    /// @return The balance of the specified token\n    function balanceOf (address token) public view returns (uint balance) {\n        if(token == address(0x0))\n            balance = address(this).balance;\n        else\n            balance = ERC20(token).balanceOf(address(this));\n    }\n\n    /// @notice Determine if a given address is a delegate of this wallet\n    /// @param account The given address\n    /// @return True if 'account' is a delegate\n    function isDelegate (address account) public view returns (bool) {\n        return delegates.contains(account);\n    }\n\n    /// @notice This function is for easily fetching the current list of delegates\n    /// @return An address array of all current delegates\n    function getDelegates () public view returns (address[] memory) {\n        return delegates.array;\n    }\n\n    /// @notice Fetch a delegate address at a particular index\n    /// @param i The index from which to fetch the delegate address\n    /// @return The delegate address at index 'i' \n    function index (uint i) public view returns (address) {\n        return delegates.index(i);\n    }\n    \n    /// @notice Fetch the index of a particular delegate address. Note: if the index returns '0', \n    ///         it must be called in conjuction with isDelegate() due to '0' being a default return value\n    /// @param delegate The delegate address from which to grab the index\n    /// @return The index of 'delegate' \n    function indexOf (address delegate) public view returns (uint) {\n        return delegates.indexOf(delegate);\n    }\n\n    /// @notice Get the current total number of delegates\n    /// @return The total number of delegates\n    function totalDelegates () public view returns (uint) {\n        return delegates.getLength();\n    }\n\n///////////////////////////\n/// Events and Modifiers\n///////////////////////////\n\n    modifier onlyDelegates () {\n        require(isDelegate(msg.sender), \"only a delegate can call this function\");\n        _;\n    }\n\n    event Deposit_event (address indexed sender, uint amount);\n    event AddDelegate_event (address delegate);\n    event RemoveDelegate_event (address delegate);\n    event Transfer_event (\n        address indexed delegate, \n        address indexed token, \n        address indexed recipient, \n        uint amount, \n        bool success\n    );\n    event Call_event(\n        address indexed delegate, \n        address indexed callAddress, \n        bytes callData, \n        bytes returnData, \n        bool success\n    );\n\n}\n",
  "sourcePath": "/home/joe/Documents/github/everchain-project/delegated-wallet/contracts/DelegatedWallet.sol",
  "compiler": {
    "name": "solc",
    "version": "0.5.1+commit.c8a2cb62.Emscripten.clang"
  },
  "schemaVersion": "3.0.0-beta.2",
  "updatedAt": "2018-12-05T09:03:01.051Z",
  "devdoc": {
    "author": "Joseph Reed",
    "details": "This contract's goal is to make it easy for anyone to add utility to their cryptocurrency wallet through      the use of delegates. Delegates can transfer funds out of the wallet but cannot add or remove other delegates. ",
    "methods": {
      "addDelegate(address)": {
        "params": {
          "delegate": "The address of the new delegate"
        },
        "return": "True if the delegate was successfully added"
      },
      "balanceOf(address)": {
        "params": {
          "token": "The token to fetch the balance of. address(0x0) == native ether"
        },
        "return": "The balance of the specified token"
      },
      "call(address,bytes)": {
        "params": {
          "callAddress": "The address of the token to transfer",
          "callData": "The address of the recipient"
        },
        "return": "success returns true if the call throws no errors. returnData contains the returned result of the call"
      },
      "getDelegates()": {
        "return": "An address array of all current delegates"
      },
      "index(uint256)": {
        "params": {
          "i": "The index from which to fetch the delegate address"
        },
        "return": "The delegate address at index 'i' "
      },
      "indexOf(address)": {
        "params": {
          "delegate": "The delegate address from which to grab the index"
        },
        "return": "The index of 'delegate' "
      },
      "initialize(address)": {
        "params": {
          "_owner": "The address that owns the wallet"
        }
      },
      "isDelegate(address)": {
        "params": {
          "account": "The given address"
        },
        "return": "True if 'account' is a delegate"
      },
      "removeDelegate(address)": {
        "params": {
          "delegate": "The address of an existing delegate"
        },
        "return": "True if the delegate was successfully removed"
      },
      "totalDelegates()": {
        "return": "The total number of delegates"
      },
      "transfer(address,address,uint256)": {
        "params": {
          "amount": "The amount of tokens to be transferred",
          "recipient": "The address of the recipient",
          "token": "The address of the token to transfer"
        },
        "return": "True if the transfer was successful"
      }
    },
    "title": "DelegatedWallet Contract"
  },
  "userdoc": {
    "methods": {
      "addDelegate(address)": {
        "notice": "//////////////////////// Owner Functions ////////////////////////Add a new delegate to the list of delegates"
      },
      "balanceOf(address)": {
        "notice": "//////////////////////// Getter Functions ////////////////////////Gets the balance of the provided token"
      },
      "call(address,bytes)": {
        "notice": "Send 'amount' of 'tokens' to 'recipient'"
      },
      "getDelegates()": {
        "notice": "This function is for easily fetching the current list of delegates"
      },
      "index(uint256)": {
        "notice": "Fetch a delegate address at a particular index"
      },
      "indexOf(address)": {
        "notice": "Fetch the index of a particular delegate address. Note: if the index returns '0',          it must be called in conjuction with isDelegate() due to '0' being a default return value"
      },
      "initialize(address)": {
        "notice": "Initializes the wallet. Uses 'initialize()' instead of a constructor to make use of the clone          factory at https://github.com/optionality/clone-factory. In general, 'initialize()' should be           called directly following it's deployment through the use of a factory."
      },
      "isDelegate(address)": {
        "notice": "Determine if a given address is a delegate of this wallet"
      },
      "removeDelegate(address)": {
        "notice": "Remove an existing delegate from the list of delegates"
      },
      "totalDelegates()": {
        "notice": "Get the current total number of delegates"
      },
      "transfer(address,address,uint256)": {
        "notice": "//////////////////////// Delegate Functions ////////////////////////Send 'amount' of 'tokens' to 'recipient'"
      }
    }
  }
}