{
  "contractName": "DelegatedWallet",
  "abi": [
    {
      "constant": true,
      "inputs": [],
      "name": "blockCreated",
      "outputs": [
        {
          "name": "",
          "type": "uint256"
        }
      ],
      "payable": false,
      "stateMutability": "view",
      "type": "function",
      "signature": "0x4e989a4c"
    },
    {
      "constant": true,
      "inputs": [],
      "name": "owner",
      "outputs": [
        {
          "name": "",
          "type": "address"
        }
      ],
      "payable": false,
      "stateMutability": "view",
      "type": "function",
      "signature": "0x8da5cb5b"
    },
    {
      "constant": true,
      "inputs": [],
      "name": "factory",
      "outputs": [
        {
          "name": "",
          "type": "address"
        }
      ],
      "payable": false,
      "stateMutability": "view",
      "type": "function",
      "signature": "0xc45a0155"
    },
    {
      "constant": false,
      "inputs": [
        {
          "name": "_newOwner",
          "type": "address"
        }
      ],
      "name": "transferOwnership",
      "outputs": [],
      "payable": false,
      "stateMutability": "nonpayable",
      "type": "function",
      "signature": "0xf2fde38b"
    },
    {
      "payable": true,
      "stateMutability": "payable",
      "type": "fallback"
    },
    {
      "anonymous": false,
      "inputs": [
        {
          "indexed": true,
          "name": "sender",
          "type": "address"
        },
        {
          "indexed": false,
          "name": "amount",
          "type": "uint256"
        }
      ],
      "name": "Deposit_event",
      "type": "event",
      "signature": "0x13d8b731cfddb1e8d6d230a4f64afe94251cf4c4fa93e730ebda89a63f8baa21"
    },
    {
      "anonymous": false,
      "inputs": [
        {
          "indexed": false,
          "name": "delegate",
          "type": "address"
        }
      ],
      "name": "AddDelegate_event",
      "type": "event",
      "signature": "0x397c0dccec32ef33cd10bec82160d77ccf7cdb5333fdce70545bd3785433fe56"
    },
    {
      "anonymous": false,
      "inputs": [
        {
          "indexed": false,
          "name": "delegate",
          "type": "address"
        }
      ],
      "name": "RemoveDelegate_event",
      "type": "event",
      "signature": "0x86fb0a934cb6730198dcf6f38b2f664a9e7cf3ff7d82f6a32dd3b64e2980b0ae"
    },
    {
      "anonymous": false,
      "inputs": [
        {
          "indexed": true,
          "name": "delegate",
          "type": "address"
        },
        {
          "indexed": true,
          "name": "token",
          "type": "address"
        },
        {
          "indexed": true,
          "name": "recipient",
          "type": "address"
        },
        {
          "indexed": false,
          "name": "amount",
          "type": "uint256"
        },
        {
          "indexed": false,
          "name": "success",
          "type": "bool"
        }
      ],
      "name": "Transfer_event",
      "type": "event",
      "signature": "0x2b18d03bce2e8cb16f892dea098b0ab4a47885659c15a7e2c68ce7c56c994571"
    },
    {
      "anonymous": false,
      "inputs": [
        {
          "indexed": true,
          "name": "delegate",
          "type": "address"
        },
        {
          "indexed": true,
          "name": "token",
          "type": "address"
        },
        {
          "indexed": true,
          "name": "recipient",
          "type": "address"
        },
        {
          "indexed": false,
          "name": "amount",
          "type": "uint256"
        },
        {
          "indexed": false,
          "name": "success",
          "type": "bool"
        }
      ],
      "name": "Approve_event",
      "type": "event",
      "signature": "0x488f93e58bf5b0d27a24465b966c6b676877b57c38477eff2c0262ebc646caec"
    },
    {
      "constant": false,
      "inputs": [
        {
          "name": "_owner",
          "type": "address"
        }
      ],
      "name": "initialize",
      "outputs": [],
      "payable": false,
      "stateMutability": "nonpayable",
      "type": "function",
      "signature": "0xc4d66de8"
    },
    {
      "constant": false,
      "inputs": [
        {
          "name": "token",
          "type": "address"
        },
        {
          "name": "recipient",
          "type": "address"
        },
        {
          "name": "amount",
          "type": "uint256"
        }
      ],
      "name": "transfer",
      "outputs": [
        {
          "name": "success",
          "type": "bool"
        }
      ],
      "payable": false,
      "stateMutability": "nonpayable",
      "type": "function",
      "signature": "0xbeabacc8"
    },
    {
      "constant": false,
      "inputs": [
        {
          "name": "token",
          "type": "address"
        },
        {
          "name": "recipient",
          "type": "address"
        },
        {
          "name": "amount",
          "type": "uint256"
        }
      ],
      "name": "approve",
      "outputs": [
        {
          "name": "success",
          "type": "bool"
        }
      ],
      "payable": false,
      "stateMutability": "nonpayable",
      "type": "function",
      "signature": "0xe1f21c67"
    },
    {
      "constant": true,
      "inputs": [
        {
          "name": "token",
          "type": "address"
        }
      ],
      "name": "balanceOf",
      "outputs": [
        {
          "name": "balance",
          "type": "uint256"
        }
      ],
      "payable": false,
      "stateMutability": "view",
      "type": "function",
      "signature": "0x70a08231"
    },
    {
      "constant": false,
      "inputs": [
        {
          "name": "delegate",
          "type": "address"
        }
      ],
      "name": "addDelegate",
      "outputs": [
        {
          "name": "success",
          "type": "bool"
        }
      ],
      "payable": false,
      "stateMutability": "nonpayable",
      "type": "function",
      "signature": "0xe71bdf41"
    },
    {
      "constant": false,
      "inputs": [
        {
          "name": "delegate",
          "type": "address"
        }
      ],
      "name": "removeDelegate",
      "outputs": [
        {
          "name": "success",
          "type": "bool"
        }
      ],
      "payable": false,
      "stateMutability": "nonpayable",
      "type": "function",
      "signature": "0x67e7646f"
    },
    {
      "constant": true,
      "inputs": [
        {
          "name": "account",
          "type": "address"
        }
      ],
      "name": "isDelegate",
      "outputs": [
        {
          "name": "",
          "type": "bool"
        }
      ],
      "payable": false,
      "stateMutability": "view",
      "type": "function",
      "signature": "0x07779627"
    },
    {
      "constant": true,
      "inputs": [],
      "name": "getDelegates",
      "outputs": [
        {
          "name": "",
          "type": "address[]"
        }
      ],
      "payable": false,
      "stateMutability": "view",
      "type": "function",
      "signature": "0xc838ccb6"
    },
    {
      "constant": true,
      "inputs": [
        {
          "name": "i",
          "type": "uint256"
        }
      ],
      "name": "index",
      "outputs": [
        {
          "name": "",
          "type": "address"
        }
      ],
      "payable": false,
      "stateMutability": "view",
      "type": "function",
      "signature": "0x335932fc"
    },
    {
      "constant": true,
      "inputs": [
        {
          "name": "delegate",
          "type": "address"
        }
      ],
      "name": "indexOf",
      "outputs": [
        {
          "name": "",
          "type": "uint256"
        }
      ],
      "payable": false,
      "stateMutability": "view",
      "type": "function",
      "signature": "0xfd6aad25"
    },
    {
      "constant": true,
      "inputs": [],
      "name": "totalDelegates",
      "outputs": [
        {
          "name": "",
          "type": "uint256"
        }
      ],
      "payable": false,
      "stateMutability": "view",
      "type": "function",
      "signature": "0xa5551bee"
    }
  ],
  "bytecode": "0x6080604052336000806101000a81548173ffffffffffffffffffffffffffffffffffffffff021916908373ffffffffffffffffffffffffffffffffffffffff160217905550611611806100536000396000f3fe6080604052600436106100db576000357c0100000000000000000000000000000000000000000000000000000000900463ffffffff168063077796271461012b578063335932fc146101945780634e989a4c1461020f57806367e7646f1461023a57806370a08231146102a35780638da5cb5b14610308578063a5551bee1461035f578063beabacc81461038a578063c45a01551461041d578063c4d66de814610474578063c838ccb6146104c5578063e1f21c6714610531578063e71bdf41146105c4578063f2fde38b1461062d578063fd6aad251461067e575b3373ffffffffffffffffffffffffffffffffffffffff167f13d8b731cfddb1e8d6d230a4f64afe94251cf4c4fa93e730ebda89a63f8baa21346040518082815260200191505060405180910390a2005b34801561013757600080fd5b5061017a6004803603602081101561014e57600080fd5b81019080803573ffffffffffffffffffffffffffffffffffffffff1690602001909291905050506106e3565b604051808215151515815260200191505060405180910390f35b3480156101a057600080fd5b506101cd600480360360208110156101b757600080fd5b81019080803590602001909291905050506107c9565b604051808273ffffffffffffffffffffffffffffffffffffffff1673ffffffffffffffffffffffffffffffffffffffff16815260200191505060405180910390f35b34801561021b57600080fd5b50610224610883565b6040518082815260200191505060405180910390f35b34801561024657600080fd5b506102896004803603602081101561025d57600080fd5b81019080803573ffffffffffffffffffffffffffffffffffffffff169060200190929190505050610889565b604051808215151515815260200191505060405180910390f35b3480156102af57600080fd5b506102f2600480360360208110156102c657600080fd5b81019080803573ffffffffffffffffffffffffffffffffffffffff169060200190929190505050610a34565b6040518082815260200191505060405180910390f35b34801561031457600080fd5b5061031d610b65565b604051808273ffffffffffffffffffffffffffffffffffffffff1673ffffffffffffffffffffffffffffffffffffffff16815260200191505060405180910390f35b34801561036b57600080fd5b50610374610b8a565b6040518082815260200191505060405180910390f35b34801561039657600080fd5b50610403600480360360608110156103ad57600080fd5b81019080803573ffffffffffffffffffffffffffffffffffffffff169060200190929190803573ffffffffffffffffffffffffffffffffffffffff16906020019092919080359060200190929190505050610c3a565b604051808215151515815260200191505060405180910390f35b34801561042957600080fd5b50610432610ec0565b604051808273ffffffffffffffffffffffffffffffffffffffff1673ffffffffffffffffffffffffffffffffffffffff16815260200191505060405180910390f35b34801561048057600080fd5b506104c36004803603602081101561049757600080fd5b81019080803573ffffffffffffffffffffffffffffffffffffffff169060200190929190505050610ee6565b005b3480156104d157600080fd5b506104da611011565b6040518080602001828103825283818151815260200191508051906020019060200280838360005b8381101561051d578082015181840152602081019050610502565b505050509050019250505060405180910390f35b34801561053d57600080fd5b506105aa6004803603606081101561055457600080fd5b81019080803573ffffffffffffffffffffffffffffffffffffffff169060200190929190803573ffffffffffffffffffffffffffffffffffffffff169060200190929190803590602001909291905050506110a2565b604051808215151515815260200191505060405180910390f35b3480156105d057600080fd5b50610613600480360360208110156105e757600080fd5b81019080803573ffffffffffffffffffffffffffffffffffffffff1690602001909291905050506112b6565b604051808215151515815260200191505060405180910390f35b34801561063957600080fd5b5061067c6004803603602081101561065057600080fd5b81019080803573ffffffffffffffffffffffffffffffffffffffff169060200190929190505050611461565b005b34801561068a57600080fd5b506106cd600480360360208110156106a157600080fd5b81019080803573ffffffffffffffffffffffffffffffffffffffff1690602001909291905050506114ff565b6040518082815260200191505060405180910390f35b6000600373__ListLib_______________________________632b63aaef9091846040518363ffffffff167c0100000000000000000000000000000000000000000000000000000000028152600401808381526020018273ffffffffffffffffffffffffffffffffffffffff1673ffffffffffffffffffffffffffffffffffffffff1681526020019250505060206040518083038186803b15801561078757600080fd5b505af415801561079b573d6000803e3d6000fd5b505050506040513d60208110156107b157600080fd5b81019080805190602001909291905050509050919050565b6000600373__ListLib_______________________________63a544c2139091846040518363ffffffff167c0100000000000000000000000000000000000000000000000000000000028152600401808381526020018281526020019250505060206040518083038186803b15801561084157600080fd5b505af4158015610855573d6000803e3d6000fd5b505050506040513d602081101561086b57600080fd5b81019080805190602001909291905050509050919050565b60015481565b60008060009054906101000a900473ffffffffffffffffffffffffffffffffffffffff1673ffffffffffffffffffffffffffffffffffffffff163373ffffffffffffffffffffffffffffffffffffffff161415156108e657600080fd5b600373__ListLib_______________________________63af9fe56b9091846040518363ffffffff167c0100000000000000000000000000000000000000000000000000000000028152600401808381526020018273ffffffffffffffffffffffffffffffffffffffff1673ffffffffffffffffffffffffffffffffffffffff1681526020019250505060206040518083038186803b15801561098857600080fd5b505af415801561099c573d6000803e3d6000fd5b505050506040513d60208110156109b257600080fd5b810190808051906020019092919050505090508015610a2f577f86fb0a934cb6730198dcf6f38b2f664a9e7cf3ff7d82f6a32dd3b64e2980b0ae82604051808273ffffffffffffffffffffffffffffffffffffffff1673ffffffffffffffffffffffffffffffffffffffff16815260200191505060405180910390a15b919050565b60008073ffffffffffffffffffffffffffffffffffffffff168273ffffffffffffffffffffffffffffffffffffffff161415610a89573073ffffffffffffffffffffffffffffffffffffffff16319050610b60565b8173ffffffffffffffffffffffffffffffffffffffff166370a08231306040518263ffffffff167c0100000000000000000000000000000000000000000000000000000000028152600401808273ffffffffffffffffffffffffffffffffffffffff1673ffffffffffffffffffffffffffffffffffffffff16815260200191505060206040518083038186803b158015610b2257600080fd5b505afa158015610b36573d6000803e3d6000fd5b505050506040513d6020811015610b4c57600080fd5b810190808051906020019092919050505090505b919050565b6000809054906101000a900473ffffffffffffffffffffffffffffffffffffffff1681565b6000600373__ListLib_______________________________630faa9b9890916040518263ffffffff167c01000000000000000000000000000000000000000000000000000000000281526004018082815260200191505060206040518083038186803b158015610bfa57600080fd5b505af4158015610c0e573d6000803e3d6000fd5b505050506040513d6020811015610c2457600080fd5b8101908080519060200190929190505050905090565b6000610c45336106e3565b1515610cdf576040517f08c379a00000000000000000000000000000000000000000000000000000000081526004018080602001828103825260358152602001807f6f6e6c7920612064656c65676174652063616e207472616e7366657220746f6b81526020017f656e73206f7574206f66207468652077616c6c6574000000000000000000000081525060400191505060405180910390fd5b600073ffffffffffffffffffffffffffffffffffffffff168473ffffffffffffffffffffffffffffffffffffffff161415610d50578273ffffffffffffffffffffffffffffffffffffffff166108fc839081150290604051600060405180830381858888f193505050509050610e31565b8373ffffffffffffffffffffffffffffffffffffffff1663a9059cbb84846040518363ffffffff167c0100000000000000000000000000000000000000000000000000000000028152600401808373ffffffffffffffffffffffffffffffffffffffff1673ffffffffffffffffffffffffffffffffffffffff16815260200182815260200192505050602060405180830381600087803b158015610df357600080fd5b505af1158015610e07573d6000803e3d6000fd5b505050506040513d6020811015610e1d57600080fd5b810190808051906020019092919050505090505b8273ffffffffffffffffffffffffffffffffffffffff168473ffffffffffffffffffffffffffffffffffffffff163373ffffffffffffffffffffffffffffffffffffffff167f2b18d03bce2e8cb16f892dea098b0ab4a47885659c15a7e2c68ce7c56c994571858560405180838152602001821515151581526020019250505060405180910390a49392505050565b600260009054906101000a900473ffffffffffffffffffffffffffffffffffffffff1681565b6000600154141515610f86576040517f08c379a00000000000000000000000000000000000000000000000000000000081526004018080602001828103825260228152602001807f626c6f636b20637265617465642063616e206f6e6c7920626520736574206f6e81526020017f636500000000000000000000000000000000000000000000000000000000000081525060400191505060405180910390fd5b4360018190555033600260006101000a81548173ffffffffffffffffffffffffffffffffffffffff021916908373ffffffffffffffffffffffffffffffffffffffff160217905550806000806101000a81548173ffffffffffffffffffffffffffffffffffffffff021916908373ffffffffffffffffffffffffffffffffffffffff16021790555050565b6060600360000180548060200260200160405190810160405280929190818152602001828054801561109857602002820191906000526020600020905b8160009054906101000a900473ffffffffffffffffffffffffffffffffffffffff1673ffffffffffffffffffffffffffffffffffffffff168152602001906001019080831161104e575b5050505050905090565b60006110ad336106e3565b1515611147576040517f08c379a00000000000000000000000000000000000000000000000000000000081526004018080602001828103825260288152602001807f6f6e6c7920612064656c65676174652063616e20617070726f766520746f6b6581526020017f6e732073656e647300000000000000000000000000000000000000000000000081525060400191505060405180910390fd5b8373ffffffffffffffffffffffffffffffffffffffff1663095ea7b384846040518363ffffffff167c0100000000000000000000000000000000000000000000000000000000028152600401808373ffffffffffffffffffffffffffffffffffffffff1673ffffffffffffffffffffffffffffffffffffffff16815260200182815260200192505050602060405180830381600087803b1580156111ea57600080fd5b505af11580156111fe573d6000803e3d6000fd5b505050506040513d602081101561121457600080fd5b810190808051906020019092919050505090508273ffffffffffffffffffffffffffffffffffffffff168473ffffffffffffffffffffffffffffffffffffffff163373ffffffffffffffffffffffffffffffffffffffff167f488f93e58bf5b0d27a24465b966c6b676877b57c38477eff2c0262ebc646caec858560405180838152602001821515151581526020019250505060405180910390a49392505050565b60008060009054906101000a900473ffffffffffffffffffffffffffffffffffffffff1673ffffffffffffffffffffffffffffffffffffffff163373ffffffffffffffffffffffffffffffffffffffff1614151561131357600080fd5b600373__ListLib_______________________________63a45c62aa9091846040518363ffffffff167c0100000000000000000000000000000000000000000000000000000000028152600401808381526020018273ffffffffffffffffffffffffffffffffffffffff1673ffffffffffffffffffffffffffffffffffffffff1681526020019250505060206040518083038186803b1580156113b557600080fd5b505af41580156113c9573d6000803e3d6000fd5b505050506040513d60208110156113df57600080fd5b81019080805190602001909291905050509050801561145c577f397c0dccec32ef33cd10bec82160d77ccf7cdb5333fdce70545bd3785433fe5682604051808273ffffffffffffffffffffffffffffffffffffffff1673ffffffffffffffffffffffffffffffffffffffff16815260200191505060405180910390a15b919050565b6000809054906101000a900473ffffffffffffffffffffffffffffffffffffffff1673ffffffffffffffffffffffffffffffffffffffff163373ffffffffffffffffffffffffffffffffffffffff161415156114bc57600080fd5b806000806101000a81548173ffffffffffffffffffffffffffffffffffffffff021916908373ffffffffffffffffffffffffffffffffffffffff16021790555050565b6000600373__ListLib_______________________________63170769759091846040518363ffffffff167c0100000000000000000000000000000000000000000000000000000000028152600401808381526020018273ffffffffffffffffffffffffffffffffffffffff1673ffffffffffffffffffffffffffffffffffffffff1681526020019250505060206040518083038186803b1580156115a357600080fd5b505af41580156115b7573d6000803e3d6000fd5b505050506040513d60208110156115cd57600080fd5b8101908080519060200190929190505050905091905056fea165627a7a72305820b9c8167607861e5545cf88e9054330d92d9b0bb1008e17498ec375d94b20f3670029",
  "source": "pragma solidity ^0.5.0;\r\n\r\nimport \"./external/ERC20.sol\";\r\nimport \"./external/Owned.sol\";\r\nimport \"./external/ListLib.sol\";\r\nimport \"./Interfaces.sol\";\r\n\r\n/// @title DelegatedWallet Contract\r\n/// @author Joseph Reed\r\n/// @dev This contract's goal is to make it easy for anyone to add utility to their cryptocurrency wallet through\r\n///      the use of delegates. Delegates can transfer funds out of the wallet but cannot add or remove other delegates. \r\ncontract DelegatedWallet is Owned, IDelegatedWallet {\r\n\r\n    using ListLib for ListLib.AddressList; // Import the data structure AddressList from the ListLib contract\r\n\r\n    uint public blockCreated;       // records the block when the contract is created\r\n    address public factory;         // records the factory that deployed this wallet\r\n    ListLib.AddressList delegates;  // the list of delegates that can call the transfer function\r\n\r\n    /// @notice Initializes the wallet. Uses 'initialize()' instead of a constructor to make use of the clone \r\n    ///         factory at https://github.com/optionality/clone-factory. In general, 'initialize()' should be  \r\n    ///         called directly following it's deployment through the use of a factory.\r\n    /// @param _owner The address that owns the wallet\r\n    function initialize (address _owner) public {\r\n        require(blockCreated == 0, \"block created can only be set once\");\r\n\r\n        blockCreated = block.number;\r\n        factory = msg.sender;\r\n\r\n        owner = _owner;\r\n    }\r\n\r\n    /// @notice Send 'amount' of 'tokens' to 'recipient'\r\n    /// @param token The address of the token to transfer\r\n    /// @param recipient The address of the recipient\r\n    /// @param amount The amount of tokens to be transferred\r\n    /// @return True if the transfer was successful\r\n    function transfer (address token, address payable recipient, uint amount) public returns (bool success) {\r\n        require(isDelegate(msg.sender), \"only a delegate can transfer tokens out of the wallet\");\r\n\r\n        if(token == address(0x0))\r\n            success = recipient.send(amount);\r\n        else\r\n            success = ERC20(token).transfer(recipient, amount);\r\n        \r\n        emit Transfer_event(msg.sender, token, recipient, amount, success);\r\n    }\r\n\r\n    /// @notice Approve 'amount' of 'tokens' to 'recipient'\r\n    /// @param token The address of the token to approve\r\n    /// @param recipient The address of the recipient\r\n    /// @param amount The amount of tokens to be approved\r\n    /// @return True if the transfer was successful\r\n    function approve (address token, address recipient, uint amount) public returns (bool success) {\r\n        require(isDelegate(msg.sender), \"only a delegate can approve tokens sends\");\r\n\r\n        success = ERC20(token).approve(recipient, amount);\r\n        \r\n        emit Approve_event(msg.sender, token, recipient, amount, success);\r\n    }\r\n\r\n    function balanceOf (address token) public view returns (uint balance) {\r\n        if(token == address(0x0))\r\n            balance = address(this).balance;\r\n        else\r\n            balance = ERC20(token).balanceOf(address(this));\r\n    }\r\n\r\n    /// @notice Add a new delegate to the list of delegates\r\n    /// @param delegate The address of the new delegate\r\n    /// @return True if the delegate was successfully added\r\n    function addDelegate(address delegate) public onlyOwner returns (bool success) {\r\n        success = delegates.add(delegate);\r\n        \r\n        if(success)\r\n            emit AddDelegate_event(delegate);\r\n    }\r\n    \r\n    /// @notice Remove an existing delegate from the list of delegates\r\n    /// @param delegate The address of an existing delegate\r\n    /// @return True if the delegate was successfully removed\r\n    function removeDelegate(address delegate) public onlyOwner returns (bool success) {\r\n        success = delegates.remove(delegate);\r\n        \r\n        if(success)\r\n            emit RemoveDelegate_event(delegate);\r\n    }\r\n\r\n    /// @notice Determine if a given address is a delegate of this wallet\r\n    /// @param account The given address\r\n    /// @return True if 'account' is a delegate\r\n    function isDelegate (address account) public view returns (bool) {\r\n        return delegates.contains(account);\r\n    }\r\n\r\n    /// @notice This function is for easily fetching the current list of delegates\r\n    /// @return An address array of all current delegates\r\n    function getDelegates () public view returns (address[] memory) {\r\n        return delegates.array;\r\n    }\r\n\r\n    /// @notice Fetch a delegate address at a particular index\r\n    /// @param i The index from which to fetch the delegate address\r\n    /// @return The delegate address at index 'i' \r\n    function index (uint i) public view returns (address) {\r\n        return delegates.index(i);\r\n    }\r\n    \r\n    /// @notice Fetch the index of a particular delegate address. Note: if the index returns '0', \r\n    ///         it must be called in conjuction with isDelegate() due to '0' being a default return value\r\n    /// @param delegate The delegate address from which to grab the index\r\n    /// @return The index of 'delegate' \r\n    function indexOf (address delegate) public view returns (uint) {\r\n        return delegates.indexOf(delegate);\r\n    }\r\n\r\n    /// @notice Get the current total number of delegates\r\n    /// @return The total number of delegates\r\n    function totalDelegates () public view returns (uint) {\r\n        return delegates.getLength();\r\n    }\r\n\r\n    /// @notice Allows accepting Ether as a payment\r\n    function () external payable {\r\n        emit Deposit_event(msg.sender, msg.value);\r\n    }\r\n\r\n    event Deposit_event (address indexed sender, uint amount);\r\n    event AddDelegate_event (address delegate);\r\n    event RemoveDelegate_event (address delegate);\r\n    event Transfer_event (\r\n        address indexed delegate, \r\n        address indexed token, \r\n        address indexed recipient, \r\n        uint amount, \r\n        bool success\r\n    );\r\n    event Approve_event (\r\n        address indexed delegate, \r\n        address indexed token, \r\n        address indexed recipient, \r\n        uint amount, \r\n        bool success\r\n    );\r\n\r\n}\r\n",
  "sourcePath": "C:\\Users\\My\\Documents\\GitHub\\everchain-project\\delegated-wallet\\contracts\\DelegatedWallet.sol",
  "compiler": {
    "name": "solc",
    "version": "0.5.0+commit.1d4f565a.Emscripten.clang"
  },
  "schemaVersion": "3.0.0-beta.2",
  "updatedAt": "2018-11-28T00:00:15.373Z",
  "devdoc": {
    "methods": {
      "addDelegate(address)": {
        "return": "True if the delegate was successfully added"
      },
      "approve(address,address,uint256)": {
        "return": "True if the transfer was successful"
      },
      "getDelegates()": {
        "return": "An address array of all current delegates"
      },
      "index(uint256)": {
        "return": "The delegate address at index 'i' "
      },
      "indexOf(address)": {
        "return": "The index of 'delegate' "
      },
      "initialize(address)": {
        "params": {
          "_owner": "The address that owns the wallet"
        }
      },
      "isDelegate(address)": {
        "return": "True if 'account' is a delegate"
      },
      "removeDelegate(address)": {
        "return": "True if the delegate was successfully removed"
      },
      "totalDelegates()": {
        "return": "The total number of delegates"
      },
      "transfer(address,address,uint256)": {
        "return": "True if the transfer was successful"
      }
    }
  },
  "userdoc": {
    "methods": {},
    "notice": "the use of delegates. Delegates can transfer funds out of the wallet but cannot add or remove other delegates. "
  }
}