{
  "contractName": "ListLib",
  "abi": [
    {
      "constant": false,
      "inputs": [
        {
          "name": "list",
          "type": "ListLib.AddressList storage"
        },
        {
          "name": "value",
          "type": "address"
        }
      ],
      "name": "add",
      "outputs": [
        {
          "name": "success",
          "type": "bool"
        }
      ],
      "payable": false,
      "stateMutability": "nonpayable",
      "type": "function",
      "signature": "0xa45c62aa"
    },
    {
      "constant": false,
      "inputs": [
        {
          "name": "list",
          "type": "ListLib.AddressList storage"
        },
        {
          "name": "value",
          "type": "address"
        }
      ],
      "name": "remove",
      "outputs": [
        {
          "name": "success",
          "type": "bool"
        }
      ],
      "payable": false,
      "stateMutability": "nonpayable",
      "type": "function",
      "signature": "0xaf9fe56b"
    },
    {
      "constant": true,
      "inputs": [
        {
          "name": "list",
          "type": "ListLib.AddressList storage"
        }
      ],
      "name": "getLength",
      "outputs": [
        {
          "name": "",
          "type": "uint256"
        }
      ],
      "payable": false,
      "stateMutability": "view",
      "type": "function",
      "signature": "0x0faa9b98"
    },
    {
      "constant": true,
      "inputs": [
        {
          "name": "list",
          "type": "ListLib.AddressList storage"
        },
        {
          "name": "value",
          "type": "address"
        }
      ],
      "name": "contains",
      "outputs": [
        {
          "name": "",
          "type": "bool"
        }
      ],
      "payable": false,
      "stateMutability": "view",
      "type": "function",
      "signature": "0x2b63aaef"
    },
    {
      "constant": true,
      "inputs": [
        {
          "name": "list",
          "type": "ListLib.AddressList storage"
        },
        {
          "name": "i",
          "type": "uint256"
        }
      ],
      "name": "index",
      "outputs": [
        {
          "name": "",
          "type": "address"
        }
      ],
      "payable": false,
      "stateMutability": "view",
      "type": "function",
      "signature": "0xa544c213"
    },
    {
      "constant": true,
      "inputs": [
        {
          "name": "list",
          "type": "ListLib.AddressList storage"
        },
        {
          "name": "value",
          "type": "address"
        }
      ],
      "name": "indexOf",
      "outputs": [
        {
          "name": "",
          "type": "uint256"
        }
      ],
      "payable": false,
      "stateMutability": "view",
      "type": "function",
      "signature": "0x17076975"
    },
    {
      "constant": true,
      "inputs": [
        {
          "name": "list",
          "type": "ListLib.AddressList storage"
        }
      ],
      "name": "get",
      "outputs": [
        {
          "name": "",
          "type": "address[]"
        }
      ],
      "payable": false,
      "stateMutability": "view",
      "type": "function",
      "signature": "0x57abf556"
    }
  ],
  "bytecode": "0x610953610030600b82828239805160001a6073146000811461002057610022565bfe5b5030600052607381538281f3fe7300000000000000000000000000000000000000003014608060405260043610610094576000357c0100000000000000000000000000000000000000000000000000000000900480630faa9b981461009957806317076975146100db5780632b63aaef1461013d57806357abf556146101a3578063a45c62aa14610226578063a544c21314610299578063af9fe56b14610311575b600080fd5b6100c5600480360360208110156100af57600080fd5b8101908080359060200190929190505050610384565b6040518082815260200191505060405180910390f35b610127600480360360408110156100f157600080fd5b8101908080359060200190929190803573ffffffffffffffffffffffffffffffffffffffff169060200190929190505050610395565b6040518082815260200191505060405180910390f35b6101896004803603604081101561015357600080fd5b8101908080359060200190929190803573ffffffffffffffffffffffffffffffffffffffff1690602001909291905050506103e1565b604051808215151515815260200191505060405180910390f35b6101cf600480360360208110156101b957600080fd5b810190808035906020019092919050505061043a565b6040518080602001828103825283818151815260200191508051906020019060200280838360005b838110156102125780820151818401526020810190506101f7565b505050509050019250505060405180910390f35b81801561023257600080fd5b5061027f6004803603604081101561024957600080fd5b8101908080359060200190929190803573ffffffffffffffffffffffffffffffffffffffff1690602001909291905050506104cc565b604051808215151515815260200191505060405180910390f35b6102cf600480360360408110156102af57600080fd5b810190808035906020019092919080359060200190929190505050610645565b604051808273ffffffffffffffffffffffffffffffffffffffff1673ffffffffffffffffffffffffffffffffffffffff16815260200191505060405180910390f35b81801561031d57600080fd5b5061036a6004803603604081101561033457600080fd5b8101908080359060200190929190803573ffffffffffffffffffffffffffffffffffffffff16906020019092919050505061068b565b604051808215151515815260200191505060405180910390f35b600081600001805490509050919050565b60008260020160008373ffffffffffffffffffffffffffffffffffffffff1673ffffffffffffffffffffffffffffffffffffffff16815260200190815260200160002054905092915050565b60008260010160008373ffffffffffffffffffffffffffffffffffffffff1673ffffffffffffffffffffffffffffffffffffffff16815260200190815260200160002060009054906101000a900460ff16905092915050565b6060816000018054806020026020016040519081016040528092919081815260200182805480156104c057602002820191906000526020600020905b8160009054906101000a900473ffffffffffffffffffffffffffffffffffffffff1673ffffffffffffffffffffffffffffffffffffffff1681526020019060010190808311610476575b50505050509050919050565b60008260010160008373ffffffffffffffffffffffffffffffffffffffff1673ffffffffffffffffffffffffffffffffffffffff16815260200190815260200160002060009054906101000a900460ff161561052b576000905061063f565b82600001805490508360020160008473ffffffffffffffffffffffffffffffffffffffff1673ffffffffffffffffffffffffffffffffffffffff1681526020019081526020016000208190555060018360010160008473ffffffffffffffffffffffffffffffffffffffff1673ffffffffffffffffffffffffffffffffffffffff16815260200190815260200160002060006101000a81548160ff021916908315150217905550826000018290806001815401808255809150509060018203906000526020600020016000909192909190916101000a81548173ffffffffffffffffffffffffffffffffffffffff021916908373ffffffffffffffffffffffffffffffffffffffff16021790555050600190505b92915050565b6000826000018281548110151561065857fe5b9060005260206000200160009054906101000a900473ffffffffffffffffffffffffffffffffffffffff16905092915050565b60008260010160008373ffffffffffffffffffffffffffffffffffffffff1673ffffffffffffffffffffffffffffffffffffffff16815260200190815260200160002060009054906101000a900460ff1615156106eb57600090506108d0565b60008360020160008473ffffffffffffffffffffffffffffffffffffffff1673ffffffffffffffffffffffffffffffffffffffff168152602001908152602001600020549050600084600001600186600001805490500381548110151561074e57fe5b9060005260206000200160009054906101000a900473ffffffffffffffffffffffffffffffffffffffff16905080856000018381548110151561078d57fe5b9060005260206000200160006101000a81548173ffffffffffffffffffffffffffffffffffffffff021916908373ffffffffffffffffffffffffffffffffffffffff160217905550818560020160008373ffffffffffffffffffffffffffffffffffffffff1673ffffffffffffffffffffffffffffffffffffffff168152602001908152602001600020819055508460000180548091906001900361083291906108d6565b508460010160008573ffffffffffffffffffffffffffffffffffffffff1673ffffffffffffffffffffffffffffffffffffffff16815260200190815260200160002060006101000a81549060ff02191690558460020160008573ffffffffffffffffffffffffffffffffffffffff1673ffffffffffffffffffffffffffffffffffffffff168152602001908152602001600020600090556001925050505b92915050565b8154818355818111156108fd578183600052602060002091820191016108fc9190610902565b5b505050565b61092491905b80821115610920576000816000905550600101610908565b5090565b9056fea165627a7a7230582069342a62773c3a8d85cbca791fc767b0305f1d09a063250316ec832d82978d4a0029",
  "source": "pragma solidity ^0.5.0;\n\n/// @dev A library for a simple unordered list that stores unique values.\nlibrary ListLib {\n    \n    struct AddressList {\n        address[] array; // An unordered list of unique values\n        mapping (address => bool) exists; // Tracks if a value exists in the list\n        mapping (address => uint) getIndex; // Tracks the index location of a value\n    }\n    \n    /// @notice Called when a address value is added to 'list'\n    /// @param list The storage that holds the list\n    /// @param value The value to add to 'list'\n    /// @return True if the 'value' is added, false if it already exists in the list\n    function add (AddressList storage list, address value) public returns (bool success) {\n        // Only add 'value' if it does not exist in the list\n        if(list.exists[value])\n            return false;\n        \n        list.getIndex[value] = list.array.length;\n        list.exists[value] = true;\n        list.array.push(value);\n            \n        return true;\n    }\n    \n    /// @notice Called when a address value is removed from 'list'\n    /// @param list The storage that holds the list\n    /// @param value The value to remove from 'list'\n    /// @return True if the 'value' is removed, false if the 'value' did not exists in the list\n    function remove (AddressList storage list, address value) public returns (bool success) {\n        // Only remove 'value' if it exists in the list\n        if(!list.exists[value])\n            return false;\n    \n        uint indexBeingRemoved = list.getIndex[value]; // The index of 'value'\n        address replacementValue = list.array[list.array.length-1]; // The last value in the list\n        \n        // Move the replacement value to the index of 'value'\n        list.array[indexBeingRemoved] = replacementValue;\n        list.getIndex[replacementValue] = indexBeingRemoved;\n        list.array.length--;\n        \n        // clean up \n        delete(list.exists[value]);\n        delete(list.getIndex[value]);\n        \n        return true;\n    }\n    \n    /// @notice Fetches the length of the list\n    /// @param list The storage that holds the list\n    /// @return The length of the 'list'\n    function getLength (AddressList storage list) public view returns (uint) {\n        return list.array.length;\n    }\n    \n    /// @notice Fetches the length of the list\n    /// @param list The storage that holds the list\n    /// @param value The value to search for\n    /// @return True if the value exists in the list\n    function contains (AddressList storage list, address value) public view returns (bool) {\n        return list.exists[value];\n    }\n\n    /// @notice Fetches the address of a given index\n    /// @param list The storage that holds the list\n    /// @param i The index to fetch\n    /// @return The address at index 'i'\n    function index (AddressList storage list, uint i) public view returns (address) {\n        return list.array[i];\n    }\n\n    /// @notice Fetches the index of a given address\n    /// @param list The storage that holds the list\n    /// @param value The address to fetch the index of\n    /// @return The index of 'value'\n    function indexOf (AddressList storage list, address value) public view returns (uint) {\n        return list.getIndex[value];\n    }\n\n    /// @notice Fetches the list of addresses\n    /// @param list The storage that holds the list\n    /// @return The list of addresses\n    function get (AddressList storage list) public view returns (address[] memory) {\n        return list.array;\n    }\n    \n}",
  "sourcePath": "/home/joe/Documents/github/everchain-project/delegated-wallet/contracts/external/ListLib.sol",
  "compiler": {
    "name": "solc",
    "version": "0.5.1+commit.c8a2cb62.Emscripten.clang"
  },
  "schemaVersion": "3.0.0-beta.2",
  "updatedAt": "2018-12-05T09:03:01.038Z",
  "devdoc": {
    "details": "A library for a simple unordered list that stores unique values.",
    "methods": {
      "add(ListLib.AddressList storage,address)": {
        "params": {
          "list": "The storage that holds the list",
          "value": "The value to add to 'list'"
        },
        "return": "True if the 'value' is added, false if it already exists in the list"
      },
      "contains(ListLib.AddressList storage,address)": {
        "params": {
          "list": "The storage that holds the list",
          "value": "The value to search for"
        },
        "return": "True if the value exists in the list"
      },
      "get(ListLib.AddressList storage)": {
        "params": {
          "list": "The storage that holds the list"
        },
        "return": "The list of addresses"
      },
      "getLength(ListLib.AddressList storage)": {
        "params": {
          "list": "The storage that holds the list"
        },
        "return": "The length of the 'list'"
      },
      "index(ListLib.AddressList storage,uint256)": {
        "params": {
          "i": "The index to fetch",
          "list": "The storage that holds the list"
        },
        "return": "The address at index 'i'"
      },
      "indexOf(ListLib.AddressList storage,address)": {
        "params": {
          "list": "The storage that holds the list",
          "value": "The address to fetch the index of"
        },
        "return": "The index of 'value'"
      },
      "remove(ListLib.AddressList storage,address)": {
        "params": {
          "list": "The storage that holds the list",
          "value": "The value to remove from 'list'"
        },
        "return": "True if the 'value' is removed, false if the 'value' did not exists in the list"
      }
    }
  },
  "userdoc": {
    "methods": {
      "add(ListLib.AddressList storage,address)": {
        "notice": "Called when a address value is added to 'list'"
      },
      "contains(ListLib.AddressList storage,address)": {
        "notice": "Fetches the length of the list"
      },
      "get(ListLib.AddressList storage)": {
        "notice": "Fetches the list of addresses"
      },
      "getLength(ListLib.AddressList storage)": {
        "notice": "Fetches the length of the list"
      },
      "index(ListLib.AddressList storage,uint256)": {
        "notice": "Fetches the address of a given index"
      },
      "indexOf(ListLib.AddressList storage,address)": {
        "notice": "Fetches the index of a given address"
      },
      "remove(ListLib.AddressList storage,address)": {
        "notice": "Called when a address value is removed from 'list'"
      }
    }
  }
}