{
  "contractName": "ListLib",
  "abi": [
    {
      "constant": false,
      "inputs": [
        {
          "name": "list",
          "type": "ListLib.AddressList storage"
        },
        {
          "name": "value",
          "type": "address"
        }
      ],
      "name": "add",
      "outputs": [
        {
          "name": "success",
          "type": "bool"
        }
      ],
      "payable": false,
      "stateMutability": "nonpayable",
      "type": "function",
      "signature": "0xa45c62aa"
    },
    {
      "constant": false,
      "inputs": [
        {
          "name": "list",
          "type": "ListLib.AddressList storage"
        },
        {
          "name": "value",
          "type": "address"
        }
      ],
      "name": "remove",
      "outputs": [
        {
          "name": "success",
          "type": "bool"
        }
      ],
      "payable": false,
      "stateMutability": "nonpayable",
      "type": "function",
      "signature": "0xaf9fe56b"
    },
    {
      "constant": true,
      "inputs": [
        {
          "name": "list",
          "type": "ListLib.AddressList storage"
        }
      ],
      "name": "getLength",
      "outputs": [
        {
          "name": "",
          "type": "uint256"
        }
      ],
      "payable": false,
      "stateMutability": "view",
      "type": "function",
      "signature": "0x0faa9b98"
    },
    {
      "constant": true,
      "inputs": [
        {
          "name": "list",
          "type": "ListLib.AddressList storage"
        },
        {
          "name": "value",
          "type": "address"
        }
      ],
      "name": "contains",
      "outputs": [
        {
          "name": "",
          "type": "bool"
        }
      ],
      "payable": false,
      "stateMutability": "view",
      "type": "function",
      "signature": "0x2b63aaef"
    },
    {
      "constant": true,
      "inputs": [
        {
          "name": "list",
          "type": "ListLib.AddressList storage"
        },
        {
          "name": "i",
          "type": "uint256"
        }
      ],
      "name": "index",
      "outputs": [
        {
          "name": "",
          "type": "address"
        }
      ],
      "payable": false,
      "stateMutability": "view",
      "type": "function",
      "signature": "0xa544c213"
    },
    {
      "constant": true,
      "inputs": [
        {
          "name": "list",
          "type": "ListLib.AddressList storage"
        },
        {
          "name": "value",
          "type": "address"
        }
      ],
      "name": "indexOf",
      "outputs": [
        {
          "name": "",
          "type": "uint256"
        }
      ],
      "payable": false,
      "stateMutability": "view",
      "type": "function",
      "signature": "0x17076975"
    },
    {
      "constant": true,
      "inputs": [
        {
          "name": "list",
          "type": "ListLib.AddressList storage"
        }
      ],
      "name": "get",
      "outputs": [
        {
          "name": "",
          "type": "address[]"
        }
      ],
      "payable": false,
      "stateMutability": "view",
      "type": "function",
      "signature": "0x57abf556"
    }
  ],
  "bytecode": "0x610959610030600b82828239805160001a6073146000811461002057610022565bfe5b5030600052607381538281f3fe730000000000000000000000000000000000000000301460806040526004361061009a576000357c0100000000000000000000000000000000000000000000000000000000900463ffffffff1680630faa9b981461009f57806317076975146100e15780632b63aaef1461014357806357abf556146101a9578063a45c62aa1461022c578063a544c2131461029f578063af9fe56b14610317575b600080fd5b6100cb600480360360208110156100b557600080fd5b810190808035906020019092919050505061038a565b6040518082815260200191505060405180910390f35b61012d600480360360408110156100f757600080fd5b8101908080359060200190929190803573ffffffffffffffffffffffffffffffffffffffff16906020019092919050505061039b565b6040518082815260200191505060405180910390f35b61018f6004803603604081101561015957600080fd5b8101908080359060200190929190803573ffffffffffffffffffffffffffffffffffffffff1690602001909291905050506103e7565b604051808215151515815260200191505060405180910390f35b6101d5600480360360208110156101bf57600080fd5b8101908080359060200190929190505050610440565b6040518080602001828103825283818151815260200191508051906020019060200280838360005b838110156102185780820151818401526020810190506101fd565b505050509050019250505060405180910390f35b81801561023857600080fd5b506102856004803603604081101561024f57600080fd5b8101908080359060200190929190803573ffffffffffffffffffffffffffffffffffffffff1690602001909291905050506104d2565b604051808215151515815260200191505060405180910390f35b6102d5600480360360408110156102b557600080fd5b81019080803590602001909291908035906020019092919050505061064b565b604051808273ffffffffffffffffffffffffffffffffffffffff1673ffffffffffffffffffffffffffffffffffffffff16815260200191505060405180910390f35b81801561032357600080fd5b506103706004803603604081101561033a57600080fd5b8101908080359060200190929190803573ffffffffffffffffffffffffffffffffffffffff169060200190929190505050610691565b604051808215151515815260200191505060405180910390f35b600081600001805490509050919050565b60008260020160008373ffffffffffffffffffffffffffffffffffffffff1673ffffffffffffffffffffffffffffffffffffffff16815260200190815260200160002054905092915050565b60008260010160008373ffffffffffffffffffffffffffffffffffffffff1673ffffffffffffffffffffffffffffffffffffffff16815260200190815260200160002060009054906101000a900460ff16905092915050565b6060816000018054806020026020016040519081016040528092919081815260200182805480156104c657602002820191906000526020600020905b8160009054906101000a900473ffffffffffffffffffffffffffffffffffffffff1673ffffffffffffffffffffffffffffffffffffffff168152602001906001019080831161047c575b50505050509050919050565b60008260010160008373ffffffffffffffffffffffffffffffffffffffff1673ffffffffffffffffffffffffffffffffffffffff16815260200190815260200160002060009054906101000a900460ff16156105315760009050610645565b82600001805490508360020160008473ffffffffffffffffffffffffffffffffffffffff1673ffffffffffffffffffffffffffffffffffffffff1681526020019081526020016000208190555060018360010160008473ffffffffffffffffffffffffffffffffffffffff1673ffffffffffffffffffffffffffffffffffffffff16815260200190815260200160002060006101000a81548160ff021916908315150217905550826000018290806001815401808255809150509060018203906000526020600020016000909192909190916101000a81548173ffffffffffffffffffffffffffffffffffffffff021916908373ffffffffffffffffffffffffffffffffffffffff16021790555050600190505b92915050565b6000826000018281548110151561065e57fe5b9060005260206000200160009054906101000a900473ffffffffffffffffffffffffffffffffffffffff16905092915050565b60008260010160008373ffffffffffffffffffffffffffffffffffffffff1673ffffffffffffffffffffffffffffffffffffffff16815260200190815260200160002060009054906101000a900460ff1615156106f157600090506108d6565b60008360020160008473ffffffffffffffffffffffffffffffffffffffff1673ffffffffffffffffffffffffffffffffffffffff168152602001908152602001600020549050600084600001600186600001805490500381548110151561075457fe5b9060005260206000200160009054906101000a900473ffffffffffffffffffffffffffffffffffffffff16905080856000018381548110151561079357fe5b9060005260206000200160006101000a81548173ffffffffffffffffffffffffffffffffffffffff021916908373ffffffffffffffffffffffffffffffffffffffff160217905550818560020160008373ffffffffffffffffffffffffffffffffffffffff1673ffffffffffffffffffffffffffffffffffffffff168152602001908152602001600020819055508460000180548091906001900361083891906108dc565b508460010160008573ffffffffffffffffffffffffffffffffffffffff1673ffffffffffffffffffffffffffffffffffffffff16815260200190815260200160002060006101000a81549060ff02191690558460020160008573ffffffffffffffffffffffffffffffffffffffff1673ffffffffffffffffffffffffffffffffffffffff168152602001908152602001600020600090556001925050505b92915050565b815481835581811115610903578183600052602060002091820191016109029190610908565b5b505050565b61092a91905b8082111561092657600081600090555060010161090e565b5090565b9056fea165627a7a72305820990612f2b43ec138a29c379ef9e4f3ddf2ab3c9aa30a97af7365dd5644ff7d5f0029",
  "source": "pragma solidity ^0.5.0;\n\n/// @dev A library for a simple unordered list that stores unique values.\nlibrary ListLib {\n    \n    struct AddressList {\n        address[] array; // An unordered list of unique values\n        mapping (address => bool) exists; // Tracks if a value exists in the list\n        mapping (address => uint) getIndex; // Tracks the index location of a value\n    }\n    \n    /// @notice Called when a address value is added to 'list'\n    /// @param list The storage that holds the list\n    /// @param value The value to add to 'list'\n    /// @return True if the 'value' is added, false if it already exists in the list\n    function add (AddressList storage list, address value) public returns (bool success) {\n        // Only add 'value' if it does not exist in the list\n        if(list.exists[value])\n            return false;\n        \n        list.getIndex[value] = list.array.length;\n        list.exists[value] = true;\n        list.array.push(value);\n            \n        return true;\n    }\n    \n    /// @notice Called when a address value is removed from 'list'\n    /// @param list The storage that holds the list\n    /// @param value The value to remove from 'list'\n    /// @return True if the 'value' is removed, false if the 'value' did not exists in the list\n    function remove (AddressList storage list, address value) public returns (bool success) {\n        // Only remove 'value' if it exists in the list\n        if(!list.exists[value])\n            return false;\n    \n        uint indexBeingRemoved = list.getIndex[value]; // The index of 'value'\n        address replacementValue = list.array[list.array.length-1]; // The last value in the list\n        \n        // Move the replacement value to the index of 'value'\n        list.array[indexBeingRemoved] = replacementValue;\n        list.getIndex[replacementValue] = indexBeingRemoved;\n        list.array.length--;\n        \n        // clean up \n        delete(list.exists[value]);\n        delete(list.getIndex[value]);\n        \n        return true;\n    }\n    \n    /// @notice Fetches the length of the list\n    /// @param list The storage that holds the list\n    /// @return The length of the 'list'\n    function getLength (AddressList storage list) public view returns (uint) {\n        return list.array.length;\n    }\n    \n    /// @notice Fetches the length of the list\n    /// @param list The storage that holds the list\n    /// @param value The value to search for\n    /// @return True if the value exists in the list\n    function contains (AddressList storage list, address value) public view returns (bool) {\n        return list.exists[value];\n    }\n\n    /// @notice Fetches the address of a given index\n    /// @param list The storage that holds the list\n    /// @param i The index to fetch\n    /// @return The address at index 'i'\n    function index (AddressList storage list, uint i) public view returns (address) {\n        return list.array[i];\n    }\n\n    /// @notice Fetches the index of a given address\n    /// @param list The storage that holds the list\n    /// @param value The address to fetch the index of\n    /// @return The index of 'value'\n    function indexOf (AddressList storage list, address value) public view returns (uint) {\n        return list.getIndex[value];\n    }\n\n    /// @notice Fetches the list of addresses\n    /// @param list The storage that holds the list\n    /// @return The list of addresses\n    function get (AddressList storage list) public view returns (address[] memory) {\n        return list.array;\n    }\n    \n}",
  "sourcePath": "C:\\Users\\My\\Documents\\GitHub\\everchain-project\\delegated-wallet\\contracts\\external\\ListLib.sol",
  "compiler": {
    "name": "solc",
    "version": "0.5.0+commit.1d4f565a.Emscripten.clang"
  },
  "schemaVersion": "3.0.0-beta.2",
  "updatedAt": "2018-11-27T23:34:16.925Z",
  "devdoc": {
    "details": "A library for a simple unordered list that stores unique values.",
    "methods": {
      "add(ListLib.AddressList storage,address)": {
        "params": {
          "list": "The storage that holds the list",
          "value": "The value to add to 'list'"
        },
        "return": "True if the 'value' is added, false if it already exists in the list"
      },
      "contains(ListLib.AddressList storage,address)": {
        "params": {
          "list": "The storage that holds the list",
          "value": "The value to search for"
        },
        "return": "True if the value exists in the list"
      },
      "get(ListLib.AddressList storage)": {
        "params": {
          "list": "The storage that holds the list"
        },
        "return": "The list of addresses"
      },
      "getLength(ListLib.AddressList storage)": {
        "params": {
          "list": "The storage that holds the list"
        },
        "return": "The length of the 'list'"
      },
      "index(ListLib.AddressList storage,uint256)": {
        "params": {
          "i": "The index to fetch",
          "list": "The storage that holds the list"
        },
        "return": "The address at index 'i'"
      },
      "indexOf(ListLib.AddressList storage,address)": {
        "params": {
          "list": "The storage that holds the list",
          "value": "The address to fetch the index of"
        },
        "return": "The index of 'value'"
      },
      "remove(ListLib.AddressList storage,address)": {
        "params": {
          "list": "The storage that holds the list",
          "value": "The value to remove from 'list'"
        },
        "return": "True if the 'value' is removed, false if the 'value' did not exists in the list"
      }
    }
  },
  "userdoc": {
    "methods": {
      "add(ListLib.AddressList storage,address)": {
        "notice": "Called when a address value is added to 'list'"
      },
      "contains(ListLib.AddressList storage,address)": {
        "notice": "Fetches the length of the list"
      },
      "get(ListLib.AddressList storage)": {
        "notice": "Fetches the list of addresses"
      },
      "getLength(ListLib.AddressList storage)": {
        "notice": "Fetches the length of the list"
      },
      "index(ListLib.AddressList storage,uint256)": {
        "notice": "Fetches the address of a given index"
      },
      "indexOf(ListLib.AddressList storage,address)": {
        "notice": "Fetches the index of a given address"
      },
      "remove(ListLib.AddressList storage,address)": {
        "notice": "Called when a address value is removed from 'list'"
      }
    }
  }
}