{
  "contractName": "MiniMeTokenFactory",
  "abi": [
    {
      "constant": false,
      "inputs": [
        {
          "name": "_parentToken",
          "type": "address"
        },
        {
          "name": "_snapshotBlock",
          "type": "uint256"
        },
        {
          "name": "_tokenName",
          "type": "string"
        },
        {
          "name": "_decimalUnits",
          "type": "uint8"
        },
        {
          "name": "_tokenSymbol",
          "type": "string"
        },
        {
          "name": "_transfersEnabled",
          "type": "bool"
        }
      ],
      "name": "createCloneToken",
      "outputs": [
        {
          "name": "",
          "type": "address"
        }
      ],
      "payable": false,
      "stateMutability": "nonpayable",
      "type": "function"
    }
  ],
  "bytecode": "0x608060405234801561001057600080fd5b5061329c806100206000396000f3fe608060405260043610610041576000357c0100000000000000000000000000000000000000000000000000000000900463ffffffff1680635b7b72c114610046575b600080fd5b34801561005257600080fd5b506101e6600480360360c081101561006957600080fd5b81019080803573ffffffffffffffffffffffffffffffffffffffff16906020019092919080359060200190929190803590602001906401000000008111156100b057600080fd5b8201836020820111156100c257600080fd5b803590602001918460018302840111640100000000831117156100e457600080fd5b91908080601f016020809104026020016040519081016040528093929190818152602001838380828437600081840152601f19601f820116905080830192505050505050509192919290803560ff1690602001909291908035906020019064010000000081111561015457600080fd5b82018360208201111561016657600080fd5b8035906020019184600183028401116401000000008311171561018857600080fd5b91908080601f016020809104026020016040519081016040528093929190818152602001838380828437600081840152601f19601f820116905080830192505050505050509192919290803515159060200190929190505050610228565b604051808273ffffffffffffffffffffffffffffffffffffffff1673ffffffffffffffffffffffffffffffffffffffff16815260200191505060405180910390f35b6000803088888888888861023a61047a565b808873ffffffffffffffffffffffffffffffffffffffff1673ffffffffffffffffffffffffffffffffffffffff1681526020018773ffffffffffffffffffffffffffffffffffffffff1673ffffffffffffffffffffffffffffffffffffffff168152602001868152602001806020018560ff1660ff1681526020018060200184151515158152602001838103835287818151815260200191508051906020019080838360005b838110156102fb5780820151818401526020810190506102e0565b50505050905090810190601f1680156103285780820380516001836020036101000a031916815260200191505b50838103825285818151815260200191508051906020019080838360005b83811015610361578082015181840152602081019050610346565b50505050905090810190601f16801561038e5780820380516001836020036101000a031916815260200191505b509950505050505050505050604051809103906000f0801580156103b6573d6000803e3d6000fd5b5090508073ffffffffffffffffffffffffffffffffffffffff16633cebb823336040518263ffffffff167c0100000000000000000000000000000000000000000000000000000000028152600401808273ffffffffffffffffffffffffffffffffffffffff1673ffffffffffffffffffffffffffffffffffffffff168152602001915050600060405180830381600087803b15801561045457600080fd5b505af1158015610468573d6000803e3d6000fd5b50505050809150509695505050505050565b604051612de68061048b8339019056fe60806040526040805190810160405280600781526020017f4d4d545f302e32000000000000000000000000000000000000000000000000008152506004908051906020019062000051929190620002a6565b503480156200005f57600080fd5b5060405162002de638038062002de6833981018060405260e08110156200008557600080fd5b810190808051906020019092919080519060200190929190805190602001909291908051640100000000811115620000bc57600080fd5b82810190506020810184811115620000d357600080fd5b8151856001820283011164010000000082111715620000f157600080fd5b50509291906020018051906020019092919080516401000000008111156200011857600080fd5b828101905060208101848111156200012f57600080fd5b81518560018202830111640100000000821117156200014d57600080fd5b505092919060200180519060200190929190505050336000806101000a81548173ffffffffffffffffffffffffffffffffffffffff021916908373ffffffffffffffffffffffffffffffffffffffff16021790555086600b60016101000a81548173ffffffffffffffffffffffffffffffffffffffff021916908373ffffffffffffffffffffffffffffffffffffffff1602179055508360019080519060200190620001fb929190620002a6565b5082600260006101000a81548160ff021916908360ff16021790555081600390805190602001906200022f929190620002a6565b5085600560006101000a81548173ffffffffffffffffffffffffffffffffffffffff021916908373ffffffffffffffffffffffffffffffffffffffff1602179055508460068190555080600b60006101000a81548160ff021916908315150217905550436007819055505050505050505062000355565b828054600181600116156101000203166002900490600052602060002090601f016020900481019282601f10620002e957805160ff19168380011785556200031a565b828001600101855582156200031a579182015b8281111562000319578251825591602001919060010190620002fc565b5b5090506200032991906200032d565b5090565b6200035291905b808211156200034e57600081600090555060010162000334565b5090565b90565b612a8180620003656000396000f3fe60806040526004361061013e576000357c0100000000000000000000000000000000000000000000000000000000900463ffffffff16806306fdde0314610278578063095ea7b314610308578063176345141461037b57806318160ddd146103a657806323b872dd146103d1578063313ce567146104645780633cebb823146104955780634ee2cd7e146104e657806354fd4d50146105555780636638c087146105e557806370a08231146107a757806380a540011461080c578063827f32c01461086357806395d89b41146108d6578063981b24d014610966578063a9059cbb146109b5578063bef97c8714610a28578063c5bcc4f114610a57578063cae9ca5114610a82578063d3ce77fe14610b8c578063dd62ed3e14610bff578063e77772fe14610c84578063f41e60c514610cdb578063f77c479114610d18575b6101686000809054906101000a900473ffffffffffffffffffffffffffffffffffffffff16610d6f565b151561017357600080fd5b6000809054906101000a900473ffffffffffffffffffffffffffffffffffffffff1673ffffffffffffffffffffffffffffffffffffffff1663f48c305434336040518363ffffffff167c0100000000000000000000000000000000000000000000000000000000028152600401808273ffffffffffffffffffffffffffffffffffffffff1673ffffffffffffffffffffffffffffffffffffffff1681526020019150506020604051808303818588803b15801561022f57600080fd5b505af1158015610243573d6000803e3d6000fd5b50505050506040513d602081101561025a57600080fd5b8101908080519060200190929190505050151561027657600080fd5b005b34801561028457600080fd5b5061028d610dc2565b6040518080602001828103825283818151815260200191508051906020019080838360005b838110156102cd5780820151818401526020810190506102b2565b50505050905090810190601f1680156102fa5780820380516001836020036101000a031916815260200191505b509250505060405180910390f35b34801561031457600080fd5b506103616004803603604081101561032b57600080fd5b81019080803573ffffffffffffffffffffffffffffffffffffffff16906020019092919080359060200190929190505050610e60565b604051808215151515815260200191505060405180910390f35b34801561038757600080fd5b50610390611171565b6040518082815260200191505060405180910390f35b3480156103b257600080fd5b506103bb611177565b6040518082815260200191505060405180910390f35b3480156103dd57600080fd5b5061044a600480360360608110156103f457600080fd5b81019080803573ffffffffffffffffffffffffffffffffffffffff169060200190929190803573ffffffffffffffffffffffffffffffffffffffff16906020019092919080359060200190929190505050611187565b604051808215151515815260200191505060405180910390f35b34801561047057600080fd5b50610479611326565b604051808260ff1660ff16815260200191505060405180910390f35b3480156104a157600080fd5b506104e4600480360360208110156104b857600080fd5b81019080803573ffffffffffffffffffffffffffffffffffffffff169060200190929190505050611339565b005b3480156104f257600080fd5b5061053f6004803603604081101561050957600080fd5b81019080803573ffffffffffffffffffffffffffffffffffffffff169060200190929190803590602001909291905050506113d7565b6040518082815260200191505060405180910390f35b34801561056157600080fd5b5061056a611677565b6040518080602001828103825283818151815260200191508051906020019080838360005b838110156105aa57808201518184015260208101905061058f565b50505050905090810190601f1680156105d75780820380516001836020036101000a031916815260200191505b509250505060405180910390f35b3480156105f157600080fd5b50610765600480360360a081101561060857600080fd5b810190808035906020019064010000000081111561062557600080fd5b82018360208201111561063757600080fd5b8035906020019184600183028401116401000000008311171561065957600080fd5b91908080601f016020809104026020016040519081016040528093929190818152602001838380828437600081840152601f19601f820116905080830192505050505050509192919290803560ff169060200190929190803590602001906401000000008111156106c957600080fd5b8201836020820111156106db57600080fd5b803590602001918460018302840111640100000000831117156106fd57600080fd5b91908080601f016020809104026020016040519081016040528093929190818152602001838380828437600081840152601f19601f82011690508083019250505050505050919291929080359060200190929190803515159060200190929190505050611715565b604051808273ffffffffffffffffffffffffffffffffffffffff1673ffffffffffffffffffffffffffffffffffffffff16815260200191505060405180910390f35b3480156107b357600080fd5b506107f6600480360360208110156107ca57600080fd5b81019080803573ffffffffffffffffffffffffffffffffffffffff169060200190929190505050611a29565b6040518082815260200191505060405180910390f35b34801561081857600080fd5b50610821611a3c565b604051808273ffffffffffffffffffffffffffffffffffffffff1673ffffffffffffffffffffffffffffffffffffffff16815260200191505060405180910390f35b34801561086f57600080fd5b506108bc6004803603604081101561088657600080fd5b81019080803573ffffffffffffffffffffffffffffffffffffffff16906020019092919080359060200190929190505050611a62565b604051808215151515815260200191505060405180910390f35b3480156108e257600080fd5b506108eb611bc3565b6040518080602001828103825283818151815260200191508051906020019080838360005b8381101561092b578082015181840152602081019050610910565b50505050905090810190601f1680156109585780820380516001836020036101000a031916815260200191505b509250505060405180910390f35b34801561097257600080fd5b5061099f6004803603602081101561098957600080fd5b8101908080359060200190929190505050611c61565b6040518082815260200191505060405180910390f35b3480156109c157600080fd5b50610a0e600480360360408110156109d857600080fd5b81019080803573ffffffffffffffffffffffffffffffffffffffff16906020019092919080359060200190929190505050611e15565b604051808215151515815260200191505060405180910390f35b348015610a3457600080fd5b50610a3d611e47565b604051808215151515815260200191505060405180910390f35b348015610a6357600080fd5b50610a6c611e5a565b6040518082815260200191505060405180910390f35b348015610a8e57600080fd5b50610b7260048036036060811015610aa557600080fd5b81019080803573ffffffffffffffffffffffffffffffffffffffff1690602001909291908035906020019092919080359060200190640100000000811115610aec57600080fd5b820183602082011115610afe57600080fd5b80359060200191846001830284011164010000000083111715610b2057600080fd5b91908080601f016020809104026020016040519081016040528093929190818152602001838380828437600081840152601f19601f820116905080830192505050505050509192919290505050611e60565b604051808215151515815260200191505060405180910390f35b348015610b9857600080fd5b50610be560048036036040811015610baf57600080fd5b81019080803573ffffffffffffffffffffffffffffffffffffffff16906020019092919080359060200190929190505050611fde565b604051808215151515815260200191505060405180910390f35b348015610c0b57600080fd5b50610c6e60048036036040811015610c2257600080fd5b81019080803573ffffffffffffffffffffffffffffffffffffffff169060200190929190803573ffffffffffffffffffffffffffffffffffffffff16906020019092919050505061213b565b6040518082815260200191505060405180910390f35b348015610c9057600080fd5b50610c996121c2565b604051808273ffffffffffffffffffffffffffffffffffffffff1673ffffffffffffffffffffffffffffffffffffffff16815260200191505060405180910390f35b348015610ce757600080fd5b50610d1660048036036020811015610cfe57600080fd5b810190808035151590602001909291905050506121e8565b005b348015610d2457600080fd5b50610d2d612260565b604051808273ffffffffffffffffffffffffffffffffffffffff1673ffffffffffffffffffffffffffffffffffffffff16815260200191505060405180910390f35b600080600073ffffffffffffffffffffffffffffffffffffffff168373ffffffffffffffffffffffffffffffffffffffff161415610db1576000915050610dbd565b823b9050600081119150505b919050565b60018054600181600116156101000203166002900480601f016020809104026020016040519081016040528092919081815260200182805460018160011615610100020316600290048015610e585780601f10610e2d57610100808354040283529160200191610e58565b820191906000526020600020905b815481529060010190602001808311610e3b57829003601f168201915b505050505081565b6000600b60009054906101000a900460ff161515610e7d57600080fd5b6000821480610f0857506000600960003373ffffffffffffffffffffffffffffffffffffffff1673ffffffffffffffffffffffffffffffffffffffff16815260200190815260200160002060008573ffffffffffffffffffffffffffffffffffffffff1673ffffffffffffffffffffffffffffffffffffffff16815260200190815260200160002054145b1515610f1357600080fd5b610f3d6000809054906101000a900473ffffffffffffffffffffffffffffffffffffffff16610d6f565b15611081576000809054906101000a900473ffffffffffffffffffffffffffffffffffffffff1673ffffffffffffffffffffffffffffffffffffffff1663da682aeb3385856040518463ffffffff167c0100000000000000000000000000000000000000000000000000000000028152600401808473ffffffffffffffffffffffffffffffffffffffff1673ffffffffffffffffffffffffffffffffffffffff1681526020018373ffffffffffffffffffffffffffffffffffffffff1673ffffffffffffffffffffffffffffffffffffffff1681526020018281526020019350505050602060405180830381600087803b15801561103a57600080fd5b505af115801561104e573d6000803e3d6000fd5b505050506040513d602081101561106457600080fd5b8101908080519060200190929190505050151561108057600080fd5b5b81600960003373ffffffffffffffffffffffffffffffffffffffff1673ffffffffffffffffffffffffffffffffffffffff16815260200190815260200160002060008573ffffffffffffffffffffffffffffffffffffffff1673ffffffffffffffffffffffffffffffffffffffff168152602001908152602001600020819055508273ffffffffffffffffffffffffffffffffffffffff163373ffffffffffffffffffffffffffffffffffffffff167f8c5be1e5ebec7d5bd14f71427d1e84f3dd0314c0f7b2291e5b200ac8c7c3b925846040518082815260200191505060405180910390a36001905092915050565b60075481565b600061118243611c61565b905090565b60008060009054906101000a900473ffffffffffffffffffffffffffffffffffffffff1673ffffffffffffffffffffffffffffffffffffffff163373ffffffffffffffffffffffffffffffffffffffff1614151561131057600b60009054906101000a900460ff1615156111fa57600080fd5b81600960008673ffffffffffffffffffffffffffffffffffffffff1673ffffffffffffffffffffffffffffffffffffffff16815260200190815260200160002060003373ffffffffffffffffffffffffffffffffffffffff1673ffffffffffffffffffffffffffffffffffffffff168152602001908152602001600020541015151561128557600080fd5b81600960008673ffffffffffffffffffffffffffffffffffffffff1673ffffffffffffffffffffffffffffffffffffffff16815260200190815260200160002060003373ffffffffffffffffffffffffffffffffffffffff1673ffffffffffffffffffffffffffffffffffffffff168152602001908152602001600020600082825403925050819055505b61131b848484612285565b600190509392505050565b600260009054906101000a900460ff1681565b6000809054906101000a900473ffffffffffffffffffffffffffffffffffffffff1673ffffffffffffffffffffffffffffffffffffffff163373ffffffffffffffffffffffffffffffffffffffff1614151561139457600080fd5b806000806101000a81548173ffffffffffffffffffffffffffffffffffffffff021916908373ffffffffffffffffffffffffffffffffffffffff16021790555050565b600080600860008573ffffffffffffffffffffffffffffffffffffffff1673ffffffffffffffffffffffffffffffffffffffff1681526020019081526020016000208054905014806114b0575081600860008573ffffffffffffffffffffffffffffffffffffffff1673ffffffffffffffffffffffffffffffffffffffff168152602001908152602001600020600081548110151561147257fe5b9060005260206000200160000160009054906101000a90046fffffffffffffffffffffffffffffffff166fffffffffffffffffffffffffffffffff16115b1561162657600073ffffffffffffffffffffffffffffffffffffffff16600560009054906101000a900473ffffffffffffffffffffffffffffffffffffffff1673ffffffffffffffffffffffffffffffffffffffff1614151561161d57600560009054906101000a900473ffffffffffffffffffffffffffffffffffffffff1673ffffffffffffffffffffffffffffffffffffffff16634ee2cd7e8461155885600654612627565b6040518363ffffffff167c0100000000000000000000000000000000000000000000000000000000028152600401808373ffffffffffffffffffffffffffffffffffffffff1673ffffffffffffffffffffffffffffffffffffffff1681526020018281526020019250505060206040518083038186803b1580156115db57600080fd5b505afa1580156115ef573d6000803e3d6000fd5b505050506040513d602081101561160557600080fd5b81019080805190602001909291905050509050611671565b60009050611671565b61166e600860008573ffffffffffffffffffffffffffffffffffffffff1673ffffffffffffffffffffffffffffffffffffffff16815260200190815260200160002083612640565b90505b92915050565b60048054600181600116156101000203166002900480601f01602080910402602001604051908101604052809291908181526020018280546001816001161561010002031660029004801561170d5780601f106116e25761010080835404028352916020019161170d565b820191906000526020600020905b8154815290600101906020018083116116f057829003601f168201915b505050505081565b600080831415611723574392505b6000600b60019054906101000a900473ffffffffffffffffffffffffffffffffffffffff1673ffffffffffffffffffffffffffffffffffffffff16635b7b72c130868a8a8a896040518763ffffffff167c0100000000000000000000000000000000000000000000000000000000028152600401808773ffffffffffffffffffffffffffffffffffffffff1673ffffffffffffffffffffffffffffffffffffffff168152602001868152602001806020018560ff1660ff1681526020018060200184151515158152602001838103835287818151815260200191508051906020019080838360005b8381101561182657808201518184015260208101905061180b565b50505050905090810190601f1680156118535780820380516001836020036101000a031916815260200191505b50838103825285818151815260200191508051906020019080838360005b8381101561188c578082015181840152602081019050611871565b50505050905090810190601f1680156118b95780820380516001836020036101000a031916815260200191505b5098505050505050505050602060405180830381600087803b1580156118de57600080fd5b505af11580156118f2573d6000803e3d6000fd5b505050506040513d602081101561190857600080fd5b810190808051906020019092919050505090508073ffffffffffffffffffffffffffffffffffffffff16633cebb823336040518263ffffffff167c0100000000000000000000000000000000000000000000000000000000028152600401808273ffffffffffffffffffffffffffffffffffffffff1673ffffffffffffffffffffffffffffffffffffffff168152602001915050600060405180830381600087803b1580156119b657600080fd5b505af11580156119ca573d6000803e3d6000fd5b505050508073ffffffffffffffffffffffffffffffffffffffff167f086c875b377f900b07ce03575813022f05dd10ed7640b5282cf6d3c3fc352ade856040518082815260200191505060405180910390a28091505095945050505050565b6000611a3582436113d7565b9050919050565b600560009054906101000a900473ffffffffffffffffffffffffffffffffffffffff1681565b60008060009054906101000a900473ffffffffffffffffffffffffffffffffffffffff1673ffffffffffffffffffffffffffffffffffffffff163373ffffffffffffffffffffffffffffffffffffffff16141515611abf57600080fd5b6000611ac9611177565b90508083820110151515611adc57600080fd5b6000611ae785611a29565b90508084820110151515611afa57600080fd5b611b07600a85840161284f565b611b51600860008773ffffffffffffffffffffffffffffffffffffffff1673ffffffffffffffffffffffffffffffffffffffff16815260200190815260200160002085830161284f565b8473ffffffffffffffffffffffffffffffffffffffff16600073ffffffffffffffffffffffffffffffffffffffff167fddf252ad1be2c89b69c2b068fc378daa952ba7f163c4a11628f55a4df523b3ef866040518082815260200191505060405180910390a360019250505092915050565b60038054600181600116156101000203166002900480601f016020809104026020016040519081016040528092919081815260200182805460018160011615610100020316600290048015611c595780601f10611c2e57610100808354040283529160200191611c59565b820191906000526020600020905b815481529060010190602001808311611c3c57829003601f168201915b505050505081565b600080600a805490501480611cc0575081600a6000815481101515611c8257fe5b9060005260206000200160000160009054906101000a90046fffffffffffffffffffffffffffffffff166fffffffffffffffffffffffffffffffff16115b15611e0257600073ffffffffffffffffffffffffffffffffffffffff16600560009054906101000a900473ffffffffffffffffffffffffffffffffffffffff1673ffffffffffffffffffffffffffffffffffffffff16141515611df957600560009054906101000a900473ffffffffffffffffffffffffffffffffffffffff1673ffffffffffffffffffffffffffffffffffffffff1663981b24d0611d6784600654612627565b6040518263ffffffff167c01000000000000000000000000000000000000000000000000000000000281526004018082815260200191505060206040518083038186803b158015611db757600080fd5b505afa158015611dcb573d6000803e3d6000fd5b505050506040513d6020811015611de157600080fd5b81019080805190602001909291905050509050611e10565b60009050611e10565b611e0d600a83612640565b90505b919050565b6000600b60009054906101000a900460ff161515611e3257600080fd5b611e3d338484612285565b6001905092915050565b600b60009054906101000a900460ff1681565b60065481565b6000611e6c8484610e60565b1515611e7757600080fd5b8373ffffffffffffffffffffffffffffffffffffffff16638f4ffcb1338530866040518563ffffffff167c0100000000000000000000000000000000000000000000000000000000028152600401808573ffffffffffffffffffffffffffffffffffffffff1673ffffffffffffffffffffffffffffffffffffffff1681526020018481526020018373ffffffffffffffffffffffffffffffffffffffff1673ffffffffffffffffffffffffffffffffffffffff16815260200180602001828103825283818151815260200191508051906020019080838360005b83811015611f6c578082015181840152602081019050611f51565b50505050905090810190601f168015611f995780820380516001836020036101000a031916815260200191505b5095505050505050600060405180830381600087803b158015611fbb57600080fd5b505af1158015611fcf573d6000803e3d6000fd5b50505050600190509392505050565b60008060009054906101000a900473ffffffffffffffffffffffffffffffffffffffff1673ffffffffffffffffffffffffffffffffffffffff163373ffffffffffffffffffffffffffffffffffffffff1614151561203b57600080fd5b6000612045611177565b905082811015151561205657600080fd5b600061206185611a29565b905083811015151561207257600080fd5b61207f600a85840361284f565b6120c9600860008773ffffffffffffffffffffffffffffffffffffffff1673ffffffffffffffffffffffffffffffffffffffff16815260200190815260200160002085830361284f565b600073ffffffffffffffffffffffffffffffffffffffff168573ffffffffffffffffffffffffffffffffffffffff167fddf252ad1be2c89b69c2b068fc378daa952ba7f163c4a11628f55a4df523b3ef866040518082815260200191505060405180910390a360019250505092915050565b6000600960008473ffffffffffffffffffffffffffffffffffffffff1673ffffffffffffffffffffffffffffffffffffffff16815260200190815260200160002060008373ffffffffffffffffffffffffffffffffffffffff1673ffffffffffffffffffffffffffffffffffffffff16815260200190815260200160002054905092915050565b600b60019054906101000a900473ffffffffffffffffffffffffffffffffffffffff1681565b6000809054906101000a900473ffffffffffffffffffffffffffffffffffffffff1673ffffffffffffffffffffffffffffffffffffffff163373ffffffffffffffffffffffffffffffffffffffff1614151561224357600080fd5b80600b60006101000a81548160ff02191690831515021790555050565b6000809054906101000a900473ffffffffffffffffffffffffffffffffffffffff1681565b60008114156122f8578173ffffffffffffffffffffffffffffffffffffffff168373ffffffffffffffffffffffffffffffffffffffff167fddf252ad1be2c89b69c2b068fc378daa952ba7f163c4a11628f55a4df523b3ef836040518082815260200191505060405180910390a3612622565b4360065410151561230857600080fd5b600073ffffffffffffffffffffffffffffffffffffffff168273ffffffffffffffffffffffffffffffffffffffff161415801561237157503073ffffffffffffffffffffffffffffffffffffffff168273ffffffffffffffffffffffffffffffffffffffff1614155b151561237c57600080fd5b600061238884436113d7565b905081811015151561239957600080fd5b6123c36000809054906101000a900473ffffffffffffffffffffffffffffffffffffffff16610d6f565b15612507576000809054906101000a900473ffffffffffffffffffffffffffffffffffffffff1673ffffffffffffffffffffffffffffffffffffffff16634a3931498585856040518463ffffffff167c0100000000000000000000000000000000000000000000000000000000028152600401808473ffffffffffffffffffffffffffffffffffffffff1673ffffffffffffffffffffffffffffffffffffffff1681526020018373ffffffffffffffffffffffffffffffffffffffff1673ffffffffffffffffffffffffffffffffffffffff1681526020018281526020019350505050602060405180830381600087803b1580156124c057600080fd5b505af11580156124d4573d6000803e3d6000fd5b505050506040513d60208110156124ea57600080fd5b8101908080519060200190929190505050151561250657600080fd5b5b612551600860008673ffffffffffffffffffffffffffffffffffffffff1673ffffffffffffffffffffffffffffffffffffffff16815260200190815260200160002083830361284f565b600061255d84436113d7565b9050808382011015151561257057600080fd5b6125ba600860008673ffffffffffffffffffffffffffffffffffffffff1673ffffffffffffffffffffffffffffffffffffffff16815260200190815260200160002084830161284f565b8373ffffffffffffffffffffffffffffffffffffffff168573ffffffffffffffffffffffffffffffffffffffff167fddf252ad1be2c89b69c2b068fc378daa952ba7f163c4a11628f55a4df523b3ef856040518082815260200191505060405180910390a350505b505050565b60008183106126365781612638565b825b905092915050565b600080838054905014156126575760009050612849565b82600184805490500381548110151561266c57fe5b9060005260206000200160000160009054906101000a90046fffffffffffffffffffffffffffffffff166fffffffffffffffffffffffffffffffff1682101515612708578260018480549050038154811015156126c557fe5b9060005260206000200160000160109054906101000a90046fffffffffffffffffffffffffffffffff166fffffffffffffffffffffffffffffffff169050612849565b82600081548110151561271757fe5b9060005260206000200160000160009054906101000a90046fffffffffffffffffffffffffffffffff166fffffffffffffffffffffffffffffffff168210156127635760009050612849565b60008090506000600185805490500390505b818111156127fa576000600260018484010181151561279057fe5b0490508486828154811015156127a257fe5b9060005260206000200160000160009054906101000a90046fffffffffffffffffffffffffffffffff166fffffffffffffffffffffffffffffffff161115156127ed578092506127f4565b6001810391505b50612775565b848281548110151561280857fe5b9060005260206000200160000160109054906101000a90046fffffffffffffffffffffffffffffffff166fffffffffffffffffffffffffffffffff16925050505b92915050565b6000828054905014806128b157504382600184805490500381548110151561287357fe5b9060005260206000200160000160009054906101000a90046fffffffffffffffffffffffffffffffff166fffffffffffffffffffffffffffffffff16105b15612960576000828380548091906001016128cc91906129c4565b8154811015156128d857fe5b906000526020600020019050438160000160006101000a8154816fffffffffffffffffffffffffffffffff02191690836fffffffffffffffffffffffffffffffff160217905550818160000160106101000a8154816fffffffffffffffffffffffffffffffff02191690836fffffffffffffffffffffffffffffffff160217905550506129c0565b600082600184805490500381548110151561297757fe5b906000526020600020019050818160000160106101000a8154816fffffffffffffffffffffffffffffffff02191690836fffffffffffffffffffffffffffffffff160217905550505b5050565b8154818355818111156129eb578183600052602060002091820191016129ea91906129f0565b5b505050565b612a5291905b80821115612a4e57600080820160006101000a8154906fffffffffffffffffffffffffffffffff02191690556000820160106101000a8154906fffffffffffffffffffffffffffffffff0219169055506001016129f6565b5090565b9056fea165627a7a72305820df73a969bac419d62ce697f602b6c6869e786ddb57a5c37ee3eec2d2972e7e3e0029a165627a7a723058206be3f952b41cf6766adb4abb5cd94e0d8a3ddf91cd395d55c1c8ec4b1d150de40029",
  "source": "pragma solidity ^0.5.0;\r\n\r\n/*\r\n    Copyright 2016, Jordi Baylina\r\n\r\n    This program is free software: you can redistribute it and/or modify\r\n    it under the terms of the GNU General Public License as published by\r\n    the Free Software Foundation, either version 3 of the License, or\r\n    (at your option) any later version.\r\n\r\n    This program is distributed in the hope that it will be useful,\r\n    but WITHOUT ANY WARRANTY; without even the implied warranty of\r\n    MERCHANTABILITY or FITNESS FOR A PARTICULAR PURPOSE.  See the\r\n    GNU General Public License for more details.\r\n\r\n    You should have received a copy of the GNU General Public License\r\n    along with this program.  If not, see <http://www.gnu.org/licenses/>.\r\n */\r\n\r\n/// @title MiniMeToken Contract\r\n/// @author Jordi Baylina\r\n/// @dev This token contract's goal is to make it easy for anyone to clone this\r\n///  token using the token distribution at a given block, this will allow DAO's\r\n///  and DApps to upgrade their features in a decentralized manner without\r\n///  affecting the original token\r\n/// @dev It is ERC20 compliant, but still needs to under go further testing.\r\n\r\ncontract Controlled {\r\n    /// @notice The address of the controller is the only address that can call\r\n    ///  a function with this modifier\r\n    modifier onlyController { require(msg.sender == controller); _; }\r\n\r\n    address payable public controller;\r\n\r\n    constructor () public { controller = msg.sender;}\r\n\r\n    /// @notice Changes the controller of the contract\r\n    /// @param _newController The new controller of the contract\r\n    function changeController(address payable _newController) public onlyController {\r\n        controller = _newController;\r\n    }\r\n}\r\n\r\n/// @dev The token controller contract must implement these functions\r\ncontract TokenController {\r\n    /// @notice Called when `_owner` sends ether to the MiniMe Token contract\r\n    /// @param _owner The address that sent the ether to create tokens\r\n    /// @return True if the ether is accepted, false if it throws\r\n    function proxyPayment(address _owner) public payable returns(bool);\r\n\r\n    /// @notice Notifies the controller about a token transfer allowing the\r\n    ///  controller to react if desired\r\n    /// @param _from The origin of the transfer\r\n    /// @param _to The destination of the transfer\r\n    /// @param _amount The amount of the transfer\r\n    /// @return False if the controller does not authorize the transfer\r\n    function onTransfer(address _from, address _to, uint _amount) public returns(bool);\r\n\r\n    /// @notice Notifies the controller about an approval allowing the\r\n    ///  controller to react if desired\r\n    /// @param _owner The address that calls `approve()`\r\n    /// @param _spender The spender in the `approve()` call\r\n    /// @param _amount The amount in the `approve()` call\r\n    /// @return False if the controller does not authorize the approval\r\n    function onApprove(address _owner, address _spender, uint _amount) public\r\n        returns(bool);\r\n}\r\n\r\ncontract ApproveAndCallFallBack {\r\n    function receiveApproval(address from, uint256 _amount, address _token, bytes memory _data) public;\r\n}\r\n\r\n/// @dev The actual token contract, the default controller is the msg.sender\r\n///  that deploys the contract, so usually this token will be deployed by a\r\n///  token controller contract, which Giveth will call a \"Campaign\"\r\ncontract MiniMeToken is Controlled {\r\n\r\n    string public name;                //The Token's name: e.g. DigixDAO Tokens\r\n    uint8 public decimals;             //Number of decimals of the smallest unit\r\n    string public symbol;              //An identifier: e.g. REP\r\n    string public version = 'MMT_0.2'; //An arbitrary versioning scheme\r\n\r\n\r\n    /// @dev `Checkpoint` is the structure that attaches a block number to a\r\n    ///  given value, the block number attached is the one that last changed the\r\n    ///  value\r\n    struct  Checkpoint {\r\n\r\n        // `fromBlock` is the block number that the value was generated from\r\n        uint128 fromBlock;\r\n\r\n        // `value` is the amount of tokens at a specific block number\r\n        uint128 value;\r\n    }\r\n\r\n    // `parentToken` is the Token address that was cloned to produce this token;\r\n    //  it will be 0x0 for a token that was not cloned\r\n    MiniMeToken public parentToken;\r\n\r\n    // `parentSnapShotBlock` is the block number from the Parent Token that was\r\n    //  used to determine the initial distribution of the Clone Token\r\n    uint public parentSnapShotBlock;\r\n\r\n    // `creationBlock` is the block number that the Clone Token was created\r\n    uint public creationBlock;\r\n\r\n    // `balances` is the map that tracks the balance of each address, in this\r\n    //  contract when the balance changes the block number that the change\r\n    //  occurred is also included in the map\r\n    mapping (address => Checkpoint[]) balances;\r\n\r\n    // `allowed` tracks any extra transfer rights as in all ERC20 tokens\r\n    mapping (address => mapping (address => uint256)) allowed;\r\n\r\n    // Tracks the history of the `totalSupply` of the token\r\n    Checkpoint[] totalSupplyHistory;\r\n\r\n    // Flag that determines if the token is transferable or not.\r\n    bool public transfersEnabled;\r\n\r\n    // The factory used to create new clone tokens\r\n    MiniMeTokenFactory public tokenFactory;\r\n\r\n////////////////\r\n// Constructor\r\n////////////////\r\n\r\n    /// @notice Constructor to create a MiniMeToken\r\n    /// @param _tokenFactory The address of the MiniMeTokenFactory contract that\r\n    ///  will create the Clone token contracts, the token factory needs to be\r\n    ///  deployed first\r\n    /// @param _parentToken Address of the parent token, set to 0x0 if it is a\r\n    ///  new token\r\n    /// @param _parentSnapShotBlock Block of the parent token that will\r\n    ///  determine the initial distribution of the clone token, set to 0 if it\r\n    ///  is a new token\r\n    /// @param _tokenName Name of the new token\r\n    /// @param _decimalUnits Number of decimals of the new token\r\n    /// @param _tokenSymbol Token Symbol for the new token\r\n    /// @param _transfersEnabled If true, tokens will be able to be transferred\r\n    constructor (\r\n        address _tokenFactory,\r\n        address payable _parentToken,\r\n        uint _parentSnapShotBlock,\r\n        string memory _tokenName,\r\n        uint8 _decimalUnits,\r\n        string memory _tokenSymbol,\r\n        bool _transfersEnabled\r\n    ) public {\r\n        tokenFactory = MiniMeTokenFactory(_tokenFactory);\r\n        name = _tokenName;                                 // Set the name\r\n        decimals = _decimalUnits;                          // Set the decimals\r\n        symbol = _tokenSymbol;                             // Set the symbol\r\n        parentToken = MiniMeToken(_parentToken);\r\n        parentSnapShotBlock = _parentSnapShotBlock;\r\n        transfersEnabled = _transfersEnabled;\r\n        creationBlock = block.number;\r\n    }\r\n\r\n\r\n///////////////////\r\n// ERC20 Methods\r\n///////////////////\r\n\r\n    /// @notice Send `_amount` tokens to `_to` from `msg.sender`\r\n    /// @param _to The address of the recipient\r\n    /// @param _amount The amount of tokens to be transferred\r\n    /// @return Whether the transfer was successful or not\r\n    function transfer(address _to, uint256 _amount) public returns (bool success) {\r\n        require(transfersEnabled);\r\n        doTransfer(msg.sender, _to, _amount);\r\n        return true;\r\n    }\r\n\r\n    /// @notice Send `_amount` tokens to `_to` from `_from` on the condition it\r\n    ///  is approved by `_from`\r\n    /// @param _from The address holding the tokens being transferred\r\n    /// @param _to The address of the recipient\r\n    /// @param _amount The amount of tokens to be transferred\r\n    /// @return True if the transfer was successful\r\n    function transferFrom(address _from, address _to, uint256 _amount\r\n    ) public returns (bool success) {\r\n\r\n        // The controller of this contract can move tokens around at will,\r\n        //  this is important to recognize! Confirm that you trust the\r\n        //  controller of this contract, which in most situations should be\r\n        //  another open source smart contract or 0x0\r\n        if (msg.sender != controller) {\r\n            require(transfersEnabled);\r\n\r\n            // The standard ERC 20 transferFrom functionality\r\n            require(allowed[_from][msg.sender] >= _amount);\r\n            allowed[_from][msg.sender] -= _amount;\r\n        }\r\n        doTransfer(_from, _to, _amount);\r\n        return true;\r\n    }\r\n\r\n    /// @dev This is the actual transfer function in the token contract, it can\r\n    ///  only be called by other functions in this contract.\r\n    /// @param _from The address holding the tokens being transferred\r\n    /// @param _to The address of the recipient\r\n    /// @param _amount The amount of tokens to be transferred\r\n    /// @return True if the transfer was successful\r\n    function doTransfer(address _from, address _to, uint _amount\r\n    ) internal {\r\n\r\n        if (_amount == 0) {\r\n            emit Transfer(_from, _to, _amount);    // Follow the spec to louch the event when transfer 0\r\n            return;\r\n        }\r\n\r\n        require(parentSnapShotBlock < block.number);\r\n\r\n        // Do not allow transfer to 0x0 or the token contract itself\r\n        require((_to != address(0x0)) && (_to != address(this)));\r\n\r\n        // If the amount being transfered is more than the balance of the\r\n        //  account the transfer throws\r\n        uint previousBalanceFrom = balanceOfAt(_from, block.number);\r\n\r\n        require(previousBalanceFrom >= _amount);\r\n\r\n        // Alerts the token controller of the transfer\r\n        if (isContract(controller)) {\r\n            require(TokenController(controller).onTransfer(_from, _to, _amount));\r\n        }\r\n\r\n        // First update the balance array with the new value for the address\r\n        //  sending the tokens\r\n        updateValueAtNow(balances[_from], previousBalanceFrom - _amount);\r\n\r\n        // Then update the balance array with the new value for the address\r\n        //  receiving the tokens\r\n        uint previousBalanceTo = balanceOfAt(_to, block.number);\r\n        require(previousBalanceTo + _amount >= previousBalanceTo); // Check for overflow\r\n        updateValueAtNow(balances[_to], previousBalanceTo + _amount);\r\n\r\n        // An event to make the transfer easy to find on the blockchain\r\n        emit Transfer(_from, _to, _amount);\r\n\r\n    }\r\n\r\n    /// @param _owner The address that's balance is being requested\r\n    /// @return The balance of `_owner` at the current block\r\n    function balanceOf(address _owner) public view returns (uint256 balance) {\r\n        return balanceOfAt(_owner, block.number);\r\n    }\r\n\r\n    /// @notice `msg.sender` approves `_spender` to spend `_amount` tokens on\r\n    ///  its behalf. This is a modified version of the ERC20 approve function\r\n    ///  to be a little bit safer\r\n    /// @param _spender The address of the account able to transfer the tokens\r\n    /// @param _amount The amount of tokens to be approved for transfer\r\n    /// @return True if the approval was successful\r\n    function approve(address _spender, uint256 _amount) public returns (bool success) {\r\n        require(transfersEnabled);\r\n\r\n        // To change the approve amount you first have to reduce the addresses`\r\n        //  allowance to zero by calling `approve(_spender,0)` if it is not\r\n        //  already 0 to mitigate the race condition described here:\r\n        //  https://github.com/ethereum/EIPs/issues/20#issuecomment-263524729\r\n        require((_amount == 0) || (allowed[msg.sender][_spender] == 0));\r\n\r\n        // Alerts the token controller of the approve function call\r\n        if (isContract(controller)) {\r\n            require(TokenController(controller).onApprove(msg.sender, _spender, _amount));\r\n        }\r\n\r\n        allowed[msg.sender][_spender] = _amount;\r\n        emit Approval(msg.sender, _spender, _amount);\r\n        return true;\r\n    }\r\n\r\n    /// @dev This function makes it easy to read the `allowed[]` map\r\n    /// @param _owner The address of the account that owns the token\r\n    /// @param _spender The address of the account able to transfer the tokens\r\n    /// @return Amount of remaining tokens of _owner that _spender is allowed\r\n    ///  to spend\r\n    function allowance(address _owner, address _spender\r\n    ) public view returns (uint256 remaining) {\r\n        return allowed[_owner][_spender];\r\n    }\r\n\r\n    /// @notice `msg.sender` approves `_spender` to send `_amount` tokens on\r\n    ///  its behalf, and then a function is triggered in the contract that is\r\n    ///  being approved, `_spender`. This allows users to use their tokens to\r\n    ///  interact with contracts in one function call instead of two\r\n    /// @param _spender The address of the contract able to transfer the tokens\r\n    /// @param _amount The amount of tokens to be approved for transfer\r\n    /// @return True if the function call was successful\r\n    function approveAndCall(address _spender, uint256 _amount, bytes memory _extraData\r\n    ) public returns (bool success) {\r\n        require(approve(_spender, _amount));\r\n\r\n        ApproveAndCallFallBack(_spender).receiveApproval(\r\n            msg.sender,\r\n            _amount,\r\n            address(this),\r\n            _extraData\r\n        );\r\n\r\n        return true;\r\n    }\r\n\r\n    /// @dev This function makes it easy to get the total number of tokens\r\n    /// @return The total number of tokens\r\n    function totalSupply() public view returns (uint) {\r\n        return totalSupplyAt(block.number);\r\n    }\r\n\r\n\r\n////////////////\r\n// Query balance and totalSupply in History\r\n////////////////\r\n\r\n    /// @dev Queries the balance of `_owner` at a specific `_blockNumber`\r\n    /// @param _owner The address from which the balance will be retrieved\r\n    /// @param _blockNumber The block number when the balance is queried\r\n    /// @return The balance at `_blockNumber`\r\n    function balanceOfAt(address _owner, uint _blockNumber) public view\r\n        returns (uint) {\r\n\r\n        // These next few lines are used when the balance of the token is\r\n        //  requested before a check point was ever created for this token, it\r\n        //  requires that the `parentToken.balanceOfAt` be queried at the\r\n        //  genesis block for that token as this contains initial balance of\r\n        //  this token\r\n        if ((balances[_owner].length == 0)\r\n            || (balances[_owner][0].fromBlock > _blockNumber)) {\r\n            if (address(parentToken) != address(0x0)) {\r\n                return parentToken.balanceOfAt(_owner, min(_blockNumber, parentSnapShotBlock));\r\n            } else {\r\n                // Has no parent\r\n                return 0;\r\n            }\r\n\r\n        // This will return the expected balance during normal situations\r\n        } else {\r\n            return getValueAt(balances[_owner], _blockNumber);\r\n        }\r\n    }\r\n\r\n    /// @notice Total amount of tokens at a specific `_blockNumber`.\r\n    /// @param _blockNumber The block number when the totalSupply is queried\r\n    /// @return The total amount of tokens at `_blockNumber`\r\n    function totalSupplyAt(uint _blockNumber) public view returns(uint) {\r\n\r\n        // These next few lines are used when the totalSupply of the token is\r\n        //  requested before a check point was ever created for this token, it\r\n        //  requires that the `parentToken.totalSupplyAt` be queried at the\r\n        //  genesis block for this token as that contains totalSupply of this\r\n        //  token at this block number.\r\n        if ((totalSupplyHistory.length == 0)\r\n            || (totalSupplyHistory[0].fromBlock > _blockNumber)) {\r\n            if (address(parentToken) != address(0x0)) {\r\n                return parentToken.totalSupplyAt(min(_blockNumber, parentSnapShotBlock));\r\n            } else {\r\n                return 0;\r\n            }\r\n\r\n        // This will return the expected totalSupply during normal situations\r\n        } else {\r\n            return getValueAt(totalSupplyHistory, _blockNumber);\r\n        }\r\n    }\r\n\r\n////////////////\r\n// Clone Token Method\r\n////////////////\r\n\r\n    /// @notice Creates a new clone token with the initial distribution being\r\n    ///  this token at `_snapshotBlock`\r\n    /// @param _cloneTokenName Name of the clone token\r\n    /// @param _cloneDecimalUnits Number of decimals of the smallest unit\r\n    /// @param _cloneTokenSymbol Symbol of the clone token\r\n    /// @param _snapshotBlock Block when the distribution of the parent token is\r\n    ///  copied to set the initial distribution of the new clone token;\r\n    ///  if the block is zero than the actual block, the current block is used\r\n    /// @param _transfersEnabled True if transfers are allowed in the clone\r\n    /// @return The address of the new MiniMeToken Contract\r\n    function createCloneToken(\r\n        string memory _cloneTokenName,\r\n        uint8 _cloneDecimalUnits,\r\n        string memory _cloneTokenSymbol,\r\n        uint _snapshotBlock,\r\n        bool _transfersEnabled\r\n        ) public returns(address) {\r\n        if (_snapshotBlock == 0) _snapshotBlock = block.number;\r\n        MiniMeToken cloneToken = tokenFactory.createCloneToken(\r\n            address(this),\r\n            _snapshotBlock,\r\n            _cloneTokenName,\r\n            _cloneDecimalUnits,\r\n            _cloneTokenSymbol,\r\n            _transfersEnabled\r\n            );\r\n\r\n        cloneToken.changeController(msg.sender);\r\n\r\n        // An event to make the token easy to find on the blockchain\r\n        emit NewCloneToken(address(cloneToken), _snapshotBlock);\r\n        return address(cloneToken);\r\n    }\r\n\r\n////////////////\r\n// Generate and destroy tokens\r\n////////////////\r\n\r\n    /// @notice Generates `_amount` tokens that are assigned to `_owner`\r\n    /// @param _owner The address that will be assigned the new tokens\r\n    /// @param _amount The quantity of tokens generated\r\n    /// @return True if the tokens are generated correctly\r\n    function generateTokens(address _owner, uint _amount\r\n    ) public onlyController returns (bool) {\r\n        uint curTotalSupply = totalSupply();\r\n        require(curTotalSupply + _amount >= curTotalSupply); // Check for overflow\r\n        uint previousBalanceTo = balanceOf(_owner);\r\n        require(previousBalanceTo + _amount >= previousBalanceTo); // Check for overflow\r\n        updateValueAtNow(totalSupplyHistory, curTotalSupply + _amount);\r\n        updateValueAtNow(balances[_owner], previousBalanceTo + _amount);\r\n        emit Transfer(address(0x0), _owner, _amount);\r\n        return true;\r\n    }\r\n\r\n\r\n    /// @notice Burns `_amount` tokens from `_owner`\r\n    /// @param _owner The address that will lose the tokens\r\n    /// @param _amount The quantity of tokens to burn\r\n    /// @return True if the tokens are burned correctly\r\n    function destroyTokens(address _owner, uint _amount\r\n    ) onlyController public returns (bool) {\r\n        uint curTotalSupply = totalSupply();\r\n        require(curTotalSupply >= _amount);\r\n        uint previousBalanceFrom = balanceOf(_owner);\r\n        require(previousBalanceFrom >= _amount);\r\n        updateValueAtNow(totalSupplyHistory, curTotalSupply - _amount);\r\n        updateValueAtNow(balances[_owner], previousBalanceFrom - _amount);\r\n        emit Transfer(_owner, address(0x0), _amount);\r\n        return true;\r\n    }\r\n\r\n////////////////\r\n// Enable tokens transfers\r\n////////////////\r\n\r\n\r\n    /// @notice Enables token holders to transfer their tokens freely if true\r\n    /// @param _transfersEnabled True if transfers are allowed in the clone\r\n    function enableTransfers(bool _transfersEnabled) public onlyController {\r\n        transfersEnabled = _transfersEnabled;\r\n    }\r\n\r\n////////////////\r\n// Internal helper functions to query and set a value in a snapshot array\r\n////////////////\r\n\r\n    /// @dev `getValueAt` retrieves the number of tokens at a given block number\r\n    /// @param checkpoints The history of values being queried\r\n    /// @param _block The block number to retrieve the value at\r\n    /// @return The number of tokens being queried\r\n    function getValueAt(Checkpoint[] storage checkpoints, uint _block\r\n    ) view internal returns (uint) {\r\n        if (checkpoints.length == 0) return 0;\r\n\r\n        // Shortcut for the actual value\r\n        if (_block >= checkpoints[checkpoints.length-1].fromBlock)\r\n            return checkpoints[checkpoints.length-1].value;\r\n        if (_block < checkpoints[0].fromBlock) return 0;\r\n\r\n        // Binary search of the value in the array\r\n        uint min = 0;\r\n        uint max = checkpoints.length-1;\r\n        while (max > min) {\r\n            uint mid = (max + min + 1)/ 2;\r\n            if (checkpoints[mid].fromBlock<=_block) {\r\n                min = mid;\r\n            } else {\r\n                max = mid-1;\r\n            }\r\n        }\r\n        return checkpoints[min].value;\r\n    }\r\n\r\n    /// @dev `updateValueAtNow` used to update the `balances` map and the\r\n    ///  `totalSupplyHistory`\r\n    /// @param checkpoints The history of data being updated\r\n    /// @param _value The new number of tokens\r\n    function updateValueAtNow(Checkpoint[] storage checkpoints, uint _value\r\n    ) internal  {\r\n        if ((checkpoints.length == 0)\r\n        || (checkpoints[checkpoints.length -1].fromBlock < block.number)) {\r\n               Checkpoint storage newCheckPoint = checkpoints[ checkpoints.length++ ];\r\n               newCheckPoint.fromBlock =  uint128(block.number);\r\n               newCheckPoint.value = uint128(_value);\r\n           } else {\r\n               Checkpoint storage oldCheckPoint = checkpoints[checkpoints.length-1];\r\n               oldCheckPoint.value = uint128(_value);\r\n           }\r\n    }\r\n\r\n    /// @dev Internal function to determine if an address is a contract\r\n    /// @param _addr The address being queried\r\n    /// @return True if `_addr` is a contract\r\n    function isContract(address _addr) view internal returns(bool) {\r\n        uint size;\r\n        if (_addr == address(0x0)) return false;\r\n        assembly {\r\n            size := extcodesize(_addr)\r\n        }\r\n        return size>0;\r\n    }\r\n\r\n    /// @dev Helper function to return a min betwen the two uints\r\n    function min(uint a, uint b) pure internal returns (uint) {\r\n        return a < b ? a : b;\r\n    }\r\n\r\n    /// @notice The fallback function: If the contract's controller has not been\r\n    ///  set to 0, then the `proxyPayment` method is called which relays the\r\n    ///  ether and creates tokens as described in the token controller contract\r\n    function () external payable {\r\n        require(isContract(controller));\r\n        require(TokenController(controller).proxyPayment.value(msg.value)(msg.sender));\r\n    }\r\n\r\n////////////////\r\n// Events\r\n////////////////\r\n\r\n    event ClaimedTokens(address indexed _token, address indexed _controller, uint _amount);\r\n    event Transfer(address indexed _from, address indexed _to, uint256 _amount);\r\n    event NewCloneToken(address indexed _cloneToken, uint _snapshotBlock);\r\n    event Approval(\r\n        address indexed _owner,\r\n        address indexed _spender,\r\n        uint256 _amount\r\n    );\r\n\r\n}\r\n\r\n\r\n////////////////\r\n// MiniMeTokenFactory\r\n////////////////\r\n\r\n/// @dev This contract is used to generate clone contracts from a contract.\r\n///  In solidity this is the way to create a contract from a contract of the\r\n///  same class\r\ncontract MiniMeTokenFactory {\r\n\r\n    /// @notice Update the DApp by creating a new token with new functionalities\r\n    ///  the msg.sender becomes the controller of this clone token\r\n    /// @param _parentToken Address of the token being cloned\r\n    /// @param _snapshotBlock Block of the parent token that will\r\n    ///  determine the initial distribution of the clone token\r\n    /// @param _tokenName Name of the new token\r\n    /// @param _decimalUnits Number of decimals of the new token\r\n    /// @param _tokenSymbol Token Symbol for the new token\r\n    /// @param _transfersEnabled If true, tokens will be able to be transferred\r\n    /// @return The address of the new token contract\r\n    function createCloneToken(\r\n        address payable _parentToken,\r\n        uint _snapshotBlock,\r\n        string memory _tokenName,\r\n        uint8 _decimalUnits,\r\n        string memory _tokenSymbol,\r\n        bool _transfersEnabled\r\n    ) public returns (MiniMeToken) {\r\n        MiniMeToken newToken = new MiniMeToken(\r\n            address(this),\r\n            _parentToken,\r\n            _snapshotBlock,\r\n            _tokenName,\r\n            _decimalUnits,\r\n            _tokenSymbol,\r\n            _transfersEnabled\r\n            );\r\n\r\n        newToken.changeController(msg.sender);\r\n        return newToken;\r\n    }\r\n}",
  "sourcePath": "C:\\Users\\My\\Documents\\GitHub\\everchain-project\\delegated-wallet\\contracts\\tests\\MiniMeToken.sol",
  "compiler": {
    "name": "solc",
    "version": "0.5.0+commit.1d4f565a.Emscripten.clang"
  },
  "schemaVersion": "3.0.0-beta.2",
  "updatedAt": "2018-11-27T05:32:38.219Z",
  "devdoc": {
    "methods": {
      "createCloneToken(address,uint256,string,uint8,string,bool)": {
        "return": "The address of the new token contract"
      }
    }
  },
  "userdoc": {
    "methods": {},
    "notice": "same class"
  }
}